{
    "contractName": "RiceDay",
    "abi": [
        {
            "inputs": [],
            "stateMutability": "nonpayable",
            "type": "constructor"
        },
        {
            "anonymous": false,
            "inputs": [
                {
                    "indexed": true,
                    "internalType": "address",
                    "name": "owner",
                    "type": "address"
                },
                {
                    "indexed": true,
                    "internalType": "address",
                    "name": "approved",
                    "type": "address"
                },
                {
                    "indexed": true,
                    "internalType": "uint256",
                    "name": "tokenId",
                    "type": "uint256"
                }
            ],
            "name": "Approval",
            "type": "event"
        },
        {
            "anonymous": false,
            "inputs": [
                {
                    "indexed": true,
                    "internalType": "address",
                    "name": "owner",
                    "type": "address"
                },
                {
                    "indexed": true,
                    "internalType": "address",
                    "name": "operator",
                    "type": "address"
                },
                {
                    "indexed": false,
                    "internalType": "bool",
                    "name": "approved",
                    "type": "bool"
                }
            ],
            "name": "ApprovalForAll",
            "type": "event"
        },
        {
            "anonymous": false,
            "inputs": [
                {
                    "indexed": true,
                    "internalType": "address",
                    "name": "previousOwner",
                    "type": "address"
                },
                {
                    "indexed": true,
                    "internalType": "address",
                    "name": "newOwner",
                    "type": "address"
                }
            ],
            "name": "OwnershipTransferred",
            "type": "event"
        },
        {
            "anonymous": false,
            "inputs": [
                {
                    "indexed": true,
                    "internalType": "address",
                    "name": "from",
                    "type": "address"
                },
                {
                    "indexed": true,
                    "internalType": "address",
                    "name": "to",
                    "type": "address"
                },
                {
                    "indexed": true,
                    "internalType": "uint256",
                    "name": "tokenId",
                    "type": "uint256"
                }
            ],
            "name": "Transfer",
            "type": "event"
        },
        {
            "inputs": [],
            "name": "COMMUNITYLEAD_ADDRESS",
            "outputs": [
                {
                    "internalType": "address",
                    "name": "",
                    "type": "address"
                }
            ],
            "stateMutability": "view",
            "type": "function"
        },
        {
            "inputs": [],
            "name": "DEVELOPMENT_FUND_ADDRESS",
            "outputs": [
                {
                    "internalType": "address",
                    "name": "",
                    "type": "address"
                }
            ],
            "stateMutability": "view",
            "type": "function"
        },
        {
            "inputs": [],
            "name": "FOUNDER_ADDRESS_1",
            "outputs": [
                {
                    "internalType": "address",
                    "name": "",
                    "type": "address"
                }
            ],
            "stateMutability": "view",
            "type": "function"
        },
        {
            "inputs": [],
            "name": "FOUNDER_ADDRESS_2",
            "outputs": [
                {
                    "internalType": "address",
                    "name": "",
                    "type": "address"
                }
            ],
            "stateMutability": "view",
            "type": "function"
        },
        {
            "inputs": [],
            "name": "GENARTIST_ADDRESS",
            "outputs": [
                {
                    "internalType": "address",
                    "name": "",
                    "type": "address"
                }
            ],
            "stateMutability": "view",
            "type": "function"
        },
        {
            "inputs": [],
            "name": "MAX_SUPPLY",
            "outputs": [
                {
                    "internalType": "uint256",
                    "name": "",
                    "type": "uint256"
                }
            ],
            "stateMutability": "view",
            "type": "function"
        },
        {
            "inputs": [],
            "name": "OXY_ADDRESS",
            "outputs": [
                {
                    "internalType": "address",
                    "name": "",
                    "type": "address"
                }
            ],
            "stateMutability": "view",
            "type": "function"
        },
        {
            "inputs": [],
            "name": "RARITYARTIST_ADDRESS",
            "outputs": [
                {
                    "internalType": "address",
                    "name": "",
                    "type": "address"
                }
            ],
            "stateMutability": "view",
            "type": "function"
        },
        {
            "inputs": [],
            "name": "TECHLEAD_ADDRESS",
            "outputs": [
                {
                    "internalType": "address",
                    "name": "",
                    "type": "address"
                }
            ],
            "stateMutability": "view",
            "type": "function"
        },
        {
            "inputs": [
                {
                    "internalType": "address",
                    "name": "to",
                    "type": "address"
                },
                {
                    "internalType": "uint256",
                    "name": "tokenId",
                    "type": "uint256"
                }
            ],
            "name": "approve",
            "outputs": [],
            "stateMutability": "nonpayable",
            "type": "function"
        },
        {
            "inputs": [
                {
                    "internalType": "address",
                    "name": "owner",
                    "type": "address"
                }
            ],
            "name": "balanceOf",
            "outputs": [
                {
                    "internalType": "uint256",
                    "name": "",
                    "type": "uint256"
                }
            ],
            "stateMutability": "view",
            "type": "function"
        },
        {
            "inputs": [
                {
                    "internalType": "enum RiceDay.SalePhase",
                    "name": "phase_",
                    "type": "uint8"
                }
            ],
            "name": "changePhase",
            "outputs": [],
            "stateMutability": "nonpayable",
            "type": "function"
        },
        {
            "inputs": [],
            "name": "devMint",
            "outputs": [],
            "stateMutability": "payable",
            "type": "function"
        },
        {
            "inputs": [
                {
                    "internalType": "uint8",
                    "name": "numberOfTokens",
                    "type": "uint8"
                },
                {
                    "internalType": "bytes",
                    "name": "signature",
                    "type": "bytes"
                }
            ],
            "name": "execChefMint",
            "outputs": [],
            "stateMutability": "payable",
            "type": "function"
        },
        {
            "inputs": [
                {
                    "internalType": "uint256",
                    "name": "tokenId",
                    "type": "uint256"
                }
            ],
            "name": "getApproved",
            "outputs": [
                {
                    "internalType": "address",
                    "name": "",
                    "type": "address"
                }
            ],
            "stateMutability": "view",
            "type": "function"
        },
        {
            "inputs": [
                {
                    "internalType": "address",
                    "name": "owner",
                    "type": "address"
                },
                {
                    "internalType": "address",
                    "name": "operator",
                    "type": "address"
                }
            ],
            "name": "isApprovedForAll",
            "outputs": [
                {
                    "internalType": "bool",
                    "name": "",
                    "type": "bool"
                }
            ],
            "stateMutability": "view",
            "type": "function"
        },
        {
            "inputs": [],
            "name": "name",
            "outputs": [
                {
                    "internalType": "string",
                    "name": "",
                    "type": "string"
                }
            ],
            "stateMutability": "view",
            "type": "function"
        },
        {
            "inputs": [],
            "name": "nextOwnerToExplicitlySet",
            "outputs": [
                {
                    "internalType": "uint256",
                    "name": "",
                    "type": "uint256"
                }
            ],
            "stateMutability": "view",
            "type": "function"
        },
        {
            "inputs": [],
            "name": "owner",
            "outputs": [
                {
                    "internalType": "address",
                    "name": "",
                    "type": "address"
                }
            ],
            "stateMutability": "view",
            "type": "function"
        },
        {
            "inputs": [
                {
                    "internalType": "uint256",
                    "name": "tokenId",
                    "type": "uint256"
                }
            ],
            "name": "ownerOf",
            "outputs": [
                {
                    "internalType": "address",
                    "name": "",
                    "type": "address"
                }
            ],
            "stateMutability": "view",
            "type": "function"
        },
        {
            "inputs": [],
            "name": "phase",
            "outputs": [
                {
                    "internalType": "enum RiceDay.SalePhase",
                    "name": "",
                    "type": "uint8"
                }
            ],
            "stateMutability": "view",
            "type": "function"
        },
        {
            "inputs": [
                {
                    "internalType": "bytes",
                    "name": "signature",
                    "type": "bytes"
                }
            ],
            "name": "prepChefMint",
            "outputs": [],
            "stateMutability": "payable",
            "type": "function"
        },
        {
            "inputs": [],
            "name": "pricePresale",
            "outputs": [
                {
                    "internalType": "uint256",
                    "name": "",
                    "type": "uint256"
                }
            ],
            "stateMutability": "view",
            "type": "function"
        },
        {
            "inputs": [],
            "name": "pricePublic",
            "outputs": [
                {
                    "internalType": "uint256",
                    "name": "",
                    "type": "uint256"
                }
            ],
            "stateMutability": "view",
            "type": "function"
        },
        {
            "inputs": [
                {
                    "internalType": "uint8",
                    "name": "numberOfTokens",
                    "type": "uint8"
                }
            ],
            "name": "publicSaleMint",
            "outputs": [],
            "stateMutability": "payable",
            "type": "function"
        },
        {
            "inputs": [
                {
                    "internalType": "bytes",
                    "name": "signature",
                    "type": "bytes"
                }
            ],
            "name": "recoverSender",
            "outputs": [
                {
                    "internalType": "address",
                    "name": "",
                    "type": "address"
                }
            ],
            "stateMutability": "view",
            "type": "function"
        },
        {
            "inputs": [],
            "name": "renounceOwnership",
            "outputs": [],
            "stateMutability": "nonpayable",
            "type": "function"
        },
        {
            "inputs": [],
            "name": "revealed",
            "outputs": [
                {
                    "internalType": "bool",
                    "name": "",
                    "type": "bool"
                }
            ],
            "stateMutability": "view",
            "type": "function"
        },
        {
            "inputs": [
                {
                    "internalType": "address",
                    "name": "from",
                    "type": "address"
                },
                {
                    "internalType": "address",
                    "name": "to",
                    "type": "address"
                },
                {
                    "internalType": "uint256",
                    "name": "tokenId",
                    "type": "uint256"
                }
            ],
            "name": "safeTransferFrom",
            "outputs": [],
            "stateMutability": "nonpayable",
            "type": "function"
        },
        {
            "inputs": [
                {
                    "internalType": "address",
                    "name": "from",
                    "type": "address"
                },
                {
                    "internalType": "address",
                    "name": "to",
                    "type": "address"
                },
                {
                    "internalType": "uint256",
                    "name": "tokenId",
                    "type": "uint256"
                },
                {
                    "internalType": "bytes",
                    "name": "_data",
                    "type": "bytes"
                }
            ],
            "name": "safeTransferFrom",
            "outputs": [],
            "stateMutability": "nonpayable",
            "type": "function"
        },
        {
            "inputs": [
                {
                    "internalType": "address",
                    "name": "operator",
                    "type": "address"
                },
                {
                    "internalType": "bool",
                    "name": "approved",
                    "type": "bool"
                }
            ],
            "name": "setApprovalForAll",
            "outputs": [],
            "stateMutability": "nonpayable",
            "type": "function"
        },
        {
            "inputs": [
                {
                    "internalType": "string",
                    "name": "_newBaseURI",
                    "type": "string"
                }
            ],
            "name": "setBaseURI",
            "outputs": [],
            "stateMutability": "nonpayable",
            "type": "function"
        },
        {
            "inputs": [
                {
                    "internalType": "address[]",
                    "name": "_addresses",
                    "type": "address[]"
                },
                {
                    "internalType": "uint8",
                    "name": "amount",
                    "type": "uint8"
                }
            ],
            "name": "setDevMint",
            "outputs": [],
            "stateMutability": "nonpayable",
            "type": "function"
        },
        {
            "inputs": [
                {
                    "internalType": "uint256",
                    "name": "newPrice",
                    "type": "uint256"
                }
            ],
            "name": "setPrivatePrice",
            "outputs": [],
            "stateMutability": "nonpayable",
            "type": "function"
        },
        {
            "inputs": [
                {
                    "internalType": "uint256",
                    "name": "newPrice",
                    "type": "uint256"
                }
            ],
            "name": "setPublicPrice",
            "outputs": [],
            "stateMutability": "nonpayable",
            "type": "function"
        },
        {
            "inputs": [
                {
                    "internalType": "address",
                    "name": "_prepChefSigner",
                    "type": "address"
                },
                {
                    "internalType": "address",
                    "name": "_execChefSigner",
                    "type": "address"
                }
            ],
            "name": "setSigners",
            "outputs": [],
            "stateMutability": "nonpayable",
            "type": "function"
        },
        {
            "inputs": [
                {
                    "internalType": "bytes4",
                    "name": "interfaceId",
                    "type": "bytes4"
                }
            ],
            "name": "supportsInterface",
            "outputs": [
                {
                    "internalType": "bool",
                    "name": "",
                    "type": "bool"
                }
            ],
            "stateMutability": "view",
            "type": "function"
        },
        {
            "inputs": [],
            "name": "symbol",
            "outputs": [
                {
                    "internalType": "string",
                    "name": "",
                    "type": "string"
                }
            ],
            "stateMutability": "view",
            "type": "function"
        },
        {
            "inputs": [],
            "name": "testBytesReturn",
            "outputs": [
                {
                    "internalType": "bytes32",
                    "name": "",
                    "type": "bytes32"
                }
            ],
            "stateMutability": "view",
            "type": "function"
        },
        {
            "inputs": [
                {
                    "internalType": "uint256",
                    "name": "index",
                    "type": "uint256"
                }
            ],
            "name": "tokenByIndex",
            "outputs": [
                {
                    "internalType": "uint256",
                    "name": "",
                    "type": "uint256"
                }
            ],
            "stateMutability": "view",
            "type": "function"
        },
        {
            "inputs": [
                {
                    "internalType": "address",
                    "name": "owner",
                    "type": "address"
                },
                {
                    "internalType": "uint256",
                    "name": "index",
                    "type": "uint256"
                }
            ],
            "name": "tokenOfOwnerByIndex",
            "outputs": [
                {
                    "internalType": "uint256",
                    "name": "",
                    "type": "uint256"
                }
            ],
            "stateMutability": "view",
            "type": "function"
        },
        {
            "inputs": [
                {
                    "internalType": "uint256",
                    "name": "tokenId",
                    "type": "uint256"
                }
            ],
            "name": "tokenURI",
            "outputs": [
                {
                    "internalType": "string",
                    "name": "",
                    "type": "string"
                }
            ],
            "stateMutability": "view",
            "type": "function"
        },
        {
            "inputs": [],
            "name": "totalSupply",
            "outputs": [
                {
                    "internalType": "uint256",
                    "name": "",
                    "type": "uint256"
                }
            ],
            "stateMutability": "view",
            "type": "function"
        },
        {
            "inputs": [
                {
                    "internalType": "address",
                    "name": "from",
                    "type": "address"
                },
                {
                    "internalType": "address",
                    "name": "to",
                    "type": "address"
                },
                {
                    "internalType": "uint256",
                    "name": "tokenId",
                    "type": "uint256"
                }
            ],
            "name": "transferFrom",
            "outputs": [],
            "stateMutability": "nonpayable",
            "type": "function"
        },
        {
            "inputs": [
                {
                    "internalType": "address",
                    "name": "newOwner",
                    "type": "address"
                }
            ],
            "name": "transferOwnership",
            "outputs": [],
            "stateMutability": "nonpayable",
            "type": "function"
        },
        {
            "inputs": [],
            "name": "withdrawAll",
            "outputs": [],
            "stateMutability": "nonpayable",
            "type": "function"
        }
    ],
    "bytecode": "60c060405260006001818155600891909155600b805460ff60a01b191690556010805460ff19169091179055670214e8348c4f00006011556701bc16d674ec80006012553480156200005057600080fd5b50604051806040016040528060078152602001665269636544617960c81b815250604051806040016040528060048152602001635249434560e01b81525060036122a2620000ad620000a7620000ef60201b60201c565b620000f3565b8351620000c290600290602087019062000143565b508251620000d890600390602086019062000143565b5060a0919091526080525050600160095562000225565b3390565b600080546001600160a01b038381166001600160a01b0319831681178455604051919092169283917f8be0079c531659141344cd1fd0a4f28419497f9722a3daafe3b4186f6b6457e09190a35050565b8280546200015190620001e9565b90600052602060002090601f016020900481019282620001755760008555620001c0565b82601f106200019057805160ff1916838001178555620001c0565b82800160010185558215620001c0579182015b82811115620001c0578251825591602001919060010190620001a3565b50620001ce929150620001d2565b5090565b5b80821115620001ce5760008155600101620001d3565b600181811c90821680620001fe57607f821691505b6020821081036200021f57634e487b7160e01b600052602260045260246000fd5b50919050565b60805160a05161346762000256600039600081816121c7015281816121f101526128300152600050506134676000f3fe60806040526004361061027d5760003560e01c80636ca800281161014f578063b14178a7116100c1578063c87b56dd1161007a578063c87b56dd14610776578063cc03069f14610796578063d7224ba0146107be578063ddc156a3146107d4578063e985e9c5146107e7578063f2fde38b1461083057600080fd5b8063b14178a7146106a5578063b1c9fe6e146106cd578063b7816b0c146106fb578063b88d4fde14610723578063c627525514610743578063c76df80e1461076357600080fd5b80638da5cb5b116101135780638da5cb5b146105fc57806391130aea1461061a5780639147dd1b1461063a57806395d89b4114610650578063a10f151e14610665578063a22cb4651461068557600080fd5b80636ca800281461059757806370a08231146105aa578063715018a6146105ca5780637c69e207146105df578063853828b6146105e757600080fd5b806323b872dd116101f35780634f6ccce7116101ac5780634f6ccce7146104e25780635098069e14610502578063518302271461052a578063528b1c2b1461054457806355f804b3146105575780636352211e1461057757600080fd5b806323b872dd1461041c5780632f745c591461043c57806332cb6b0c1461045c57806342842e0e14610472578063454b990914610492578063499daf72146104ba57600080fd5b8063102e766d11610245578063102e766d1461035357806310e2ed451461037757806315da3ba614610397578063177d0daf146103bf57806318160ddd146103df57806323411393146103f457600080fd5b806301ffc9a71461028257806306fdde03146102b75780630721c297146102d9578063081812fc146102fb578063095ea7b314610333575b600080fd5b34801561028e57600080fd5b506102a261029d366004612c0f565b610850565b60405190151581526020015b60405180910390f35b3480156102c357600080fd5b506102cc6108bd565b6040516102ae9190612c84565b3480156102e557600080fd5b506102f96102f4366004612c97565b61094f565b005b34801561030757600080fd5b5061031b610316366004612cb8565b6109af565b6040516001600160a01b0390911681526020016102ae565b34801561033f57600080fd5b506102f961034e366004612ced565b610a3a565b34801561035f57600080fd5b5061036960115481565b6040519081526020016102ae565b34801561038357600080fd5b506102f9610392366004612d28565b610b51565b3480156103a357600080fd5b5061031b734d343925df00700c4838112f22eba49a0d4d07ae81565b3480156103cb57600080fd5b5061031b6103da366004612dec565b610bf5565b3480156103eb57600080fd5b50600154610369565b34801561040057600080fd5b5061031b7319b260a039eda8b896f4c7463445fb94b4c86a8581565b34801561042857600080fd5b506102f9610437366004612e2d565b610c94565b34801561044857600080fd5b50610369610457366004612ced565b610c9f565b34801561046857600080fd5b506103696122a281565b34801561047e57600080fd5b506102f961048d366004612e2d565b610e15565b34801561049e57600080fd5b5061031b73c54003e08b17f127196eb3562bc2085bed3332d581565b3480156104c657600080fd5b5061031b735774883c9ddab26954d0d2cabea2f97dbee7cc1a81565b3480156104ee57600080fd5b506103696104fd366004612cb8565b610e30565b34801561050e57600080fd5b5061031b73c929b6bd739a8564bcb35e978afe4fff5b6c3cef81565b34801561053657600080fd5b506010546102a29060ff1681565b6102f9610552366004612e69565b610e99565b34801561056357600080fd5b506102f9610572366004612f46565b611147565b34801561058357600080fd5b5061031b610592366004612cb8565b611188565b6102f96105a5366004612dec565b61119a565b3480156105b657600080fd5b506103696105c5366004612f8e565b6113bc565b3480156105d657600080fd5b506102f961144d565b6102f9611483565b3480156105f357600080fd5b506102f9611564565b34801561060857600080fd5b506000546001600160a01b031661031b565b34801561062657600080fd5b506102f9610635366004612fa9565b61189a565b34801561064657600080fd5b5061036960125481565b34801561065c57600080fd5b506102cc6118f2565b34801561067157600080fd5b506102f9610680366004612cb8565b611901565b34801561069157600080fd5b506102f96106a0366004612fdc565b611930565b3480156106b157600080fd5b5061031b73a1b636d2e7d1c53eba425e3e76b9bbecf4d5da5681565b3480156106d957600080fd5b50600b546106ee90600160a01b900460ff1681565b6040516102ae919061302e565b34801561070757600080fd5b5061031b7343b5f6d6c1b5c57153578025c76e091d8025c11481565b34801561072f57600080fd5b506102f961073e366004613056565b6119f4565b34801561074f57600080fd5b506102f961075e366004612cb8565b611a27565b6102f96107713660046130d1565b611a56565b34801561078257600080fd5b506102cc610791366004612cb8565b611bbe565b3480156107a257600080fd5b5061031b73b77df549e859919f0c8d09dfc22ca1d489a6708481565b3480156107ca57600080fd5b5061036960085481565b3480156107e057600080fd5b5033610369565b3480156107f357600080fd5b506102a2610802366004612fa9565b6001600160a01b03918216600090815260076020908152604080832093909416825291909152205460ff1690565b34801561083c57600080fd5b506102f961084b366004612f8e565b611c8a565b60006001600160e01b031982166380ac58cd60e01b148061088157506001600160e01b03198216635b5e139f60e01b145b8061089c57506001600160e01b0319821663780e9d6360e01b145b806108b757506301ffc9a760e01b6001600160e01b03198316145b92915050565b6060600280546108cc906130ec565b80601f01602080910402602001604051908101604052809291908181526020018280546108f8906130ec565b80156109455780601f1061091a57610100808354040283529160200191610945565b820191906000526020600020905b81548152906001019060200180831161092857829003601f168201915b5050505050905090565b6000546001600160a01b031633146109825760405162461bcd60e51b815260040161097990613126565b60405180910390fd5b600b805482919060ff60a01b1916600160a01b8360028111156109a7576109a7613018565b021790555050565b60006109bc826001541190565b610a1e5760405162461bcd60e51b815260206004820152602d60248201527f455243373231413a20617070726f76656420717565727920666f72206e6f6e6560448201526c3c34b9ba32b73a103a37b5b2b760991b6064820152608401610979565b506000908152600660205260409020546001600160a01b031690565b6000610a4582611188565b9050806001600160a01b0316836001600160a01b031603610ab35760405162461bcd60e51b815260206004820152602260248201527f455243373231413a20617070726f76616c20746f2063757272656e74206f776e60448201526132b960f11b6064820152608401610979565b336001600160a01b0382161480610acf5750610acf8133610802565b610b415760405162461bcd60e51b815260206004820152603960248201527f455243373231413a20617070726f76652063616c6c6572206973206e6f74206f60448201527f776e6572206e6f7220617070726f76656420666f7220616c6c000000000000006064820152608401610979565b610b4c838383611d25565b505050565b6000546001600160a01b03163314610b7b5760405162461bcd60e51b815260040161097990613126565b60005b82811015610bef5781600c6000868685818110610b9d57610b9d61315b565b9050602002016020810190610bb29190612f8e565b6001600160a01b031681526020810191909152604001600020805460ff191660ff9290921691909117905580610be781613187565b915050610b7e565b50505050565b6000610c8d83838080601f016020809104026020016040519081016040528093929190818152602001838380828437600092019190915250506040517f19457468657265756d205369676e6564204d6573736167653a0a333200000000602082015233603c820152605c019150610c699050565b60405160208183030381529060405280519060200120611d8190919063ffffffff16565b9392505050565b610b4c838383611da5565b6000610caa836113bc565b8210610d035760405162461bcd60e51b815260206004820152602260248201527f455243373231413a206f776e657220696e646578206f7574206f6620626f756e604482015261647360f01b6064820152608401610979565b6000610d0e60015490565b905060008060005b83811015610db5576000818152600460209081526040918290208251808401909352546001600160a01b038116808452600160a01b9091046001600160401b03169183019190915215610d6857805192505b876001600160a01b0316836001600160a01b031603610da257868403610d94575093506108b792505050565b83610d9e81613187565b9450505b5080610dad81613187565b915050610d16565b5060405162461bcd60e51b815260206004820152602e60248201527f455243373231413a20756e61626c6520746f2067657420746f6b656e206f662060448201526d0deeedccae440c4f240d2dcc8caf60931b6064820152608401610979565b610b4c838383604051806020016040528060008152506119f4565b6000610e3b60015490565b8210610e955760405162461bcd60e51b815260206004820152602360248201527f455243373231413a20676c6f62616c20696e646578206f7574206f6620626f756044820152626e647360e81b6064820152608401610979565b5090565b323314610eb85760405162461bcd60e51b8152600401610979906131a0565b6001600b54600160a01b900460ff166002811115610ed857610ed8613018565b14610f255760405162461bcd60e51b815260206004820152601a60248201527f50726573616c65206d696e74696e67206e6f74206163746976650000000000006044820152606401610979565b6122a2610f3160015490565b610f3e9060ff86166131d7565b1115610f5c5760405162461bcd60e51b8152600401610979906131ef565b60028360ff161115610fb05760405162461bcd60e51b815260206004820152601960248201527f43616e6e6f742070757263686173652074686174206d616e79000000000000006044820152606401610979565b336000908152600e6020526040902054600260ff90911611156110065760405162461bcd60e51b815260206004820152600e60248201526d105b1c9958591e481b5a5b9d195960921b6044820152606401610979565b336000908152600e60205260408120805485929061102890849060ff16613224565b92506101000a81548160ff021916908360ff1602179055506110b282828080601f016020809104026020016040519081016040528093929190818152602001838380828437600092019190915250506040517f19457468657265756d205369676e6564204d6573736167653a0a333200000000602082015233603c820152605c019150610c699050565b600b546001600160a01b0390811691161461110a5760405162461bcd60e51b815260206004820152601860248201527729b4b3b732b91030b2323932b9b99036b4b9b6b0ba31b41760411b6044820152606401610979565b348360ff1660115461111c9190613249565b111561113a5760405162461bcd60e51b815260040161097990613268565b610b4c338460ff1661212b565b6000546001600160a01b031633146111715760405162461bcd60e51b815260040161097990613126565b805161118490600f906020840190612b69565b5050565b600061119382612145565b5192915050565b3233146111b95760405162461bcd60e51b8152600401610979906131a0565b6001600b54600160a01b900460ff1660028111156111d9576111d9613018565b146112265760405162461bcd60e51b815260206004820152601a60248201527f50726573616c65206d696e74696e67206e6f74206163746976650000000000006044820152606401610979565b6122a261123260015490565b61123d9060016131d7565b111561125b5760405162461bcd60e51b8152600401610979906131ef565b34601154111561127d5760405162461bcd60e51b815260040161097990613268565b336000908152600d602052604090205460ff16156112ce5760405162461bcd60e51b815260206004820152600e60248201526d105b1c9958591e481b5a5b9d195960921b6044820152606401610979565b336000908152600d6020908152604091829020805460ff191660011790558151601f840182900482028101820190925282825261135991908490849081908401838280828437600092019190915250506040517f19457468657265756d205369676e6564204d6573736167653a0a333200000000602082015233603c820152605c019150610c699050565b600a546001600160a01b039081169116146113b15760405162461bcd60e51b815260206004820152601860248201527729b4b3b732b91030b2323932b9b99036b4b9b6b0ba31b41760411b6044820152606401610979565b61118433600161212b565b60006001600160a01b0382166114285760405162461bcd60e51b815260206004820152602b60248201527f455243373231413a2062616c616e636520717565727920666f7220746865207a60448201526a65726f206164647265737360a81b6064820152608401610979565b506001600160a01b03166000908152600560205260409020546001600160801b031690565b6000546001600160a01b031633146114775760405162461bcd60e51b815260040161097990613126565b61148160006122ee565b565b3233146114a25760405162461bcd60e51b8152600401610979906131a0565b336000908152600c602052604090205460ff166114f35760405162461bcd60e51b815260206004820152600f60248201526e185b1c9958591e4818db185a5b5959608a1b6044820152606401610979565b336000908152600c602052604090205460ff166122a261151260015490565b61151f9060ff84166131d7565b111561153d5760405162461bcd60e51b8152600401610979906131ef565b61154a338260ff1661212b565b50336000908152600c60205260409020805460ff19169055565b6000546001600160a01b0316331461158e5760405162461bcd60e51b815260040161097990613126565b47806115cb5760405162461bcd60e51b815260206004820152600c60248201526b042616c616e636520697320360a41b6044820152606401610979565b73b77df549e859919f0c8d09dfc22ca1d489a670846108fc6127106115f284611388613249565b6115fc91906132b5565b6040518115909202916000818181858888f19350505050158015611624573d6000803e3d6000fd5b507343b5f6d6c1b5c57153578025c76e091d8025c1146108fc61271061164c846104e2613249565b61165691906132b5565b6040518115909202916000818181858888f1935050505015801561167e573d6000803e3d6000fd5b50734d343925df00700c4838112f22eba49a0d4d07ae6108fc6127106116a6846103c5613249565b6116b091906132b5565b6040518115909202916000818181858888f193505050501580156116d8573d6000803e3d6000fd5b5073c929b6bd739a8564bcb35e978afe4fff5b6c3cef6108fc612710611700846103c5613249565b61170a91906132b5565b6040518115909202916000818181858888f19350505050158015611732573d6000803e3d6000fd5b50735774883c9ddab26954d0d2cabea2f97dbee7cc1a6108fc61271061175a846101c2613249565b61176491906132b5565b6040518115909202916000818181858888f1935050505015801561178c573d6000803e3d6000fd5b507319b260a039eda8b896f4c7463445fb94b4c86a856108fc6127106117b4846101c2613249565b6117be91906132b5565b6040518115909202916000818181858888f193505050501580156117e6573d6000803e3d6000fd5b5073c54003e08b17f127196eb3562bc2085bed3332d56108fc61271061180e84610258613249565b61181891906132b5565b6040518115909202916000818181858888f19350505050158015611840573d6000803e3d6000fd5b5073a1b636d2e7d1c53eba425e3e76b9bbecf4d5da566108fc61271061186884610140613249565b61187291906132b5565b6040518115909202916000818181858888f19350505050158015611184573d6000803e3d6000fd5b6000546001600160a01b031633146118c45760405162461bcd60e51b815260040161097990613126565b600a80546001600160a01b039384166001600160a01b031991821617909155600b8054929093169116179055565b6060600380546108cc906130ec565b6000546001600160a01b0316331461192b5760405162461bcd60e51b815260040161097990613126565b601255565b336001600160a01b038316036119885760405162461bcd60e51b815260206004820152601a60248201527f455243373231413a20617070726f766520746f2063616c6c65720000000000006044820152606401610979565b3360008181526007602090815260408083206001600160a01b03871680855290835292819020805460ff191686151590811790915590519081529192917f17307eab39ab6107e8899845ad3d59bd9653f200f220920489ca2b5937696c31910160405180910390a35050565b6119ff848484611da5565b611a0b8484848461233e565b610bef5760405162461bcd60e51b8152600401610979906132c9565b6000546001600160a01b03163314611a515760405162461bcd60e51b815260040161097990613126565b601155565b323314611a755760405162461bcd60e51b8152600401610979906131a0565b6002600b54600160a01b900460ff166002811115611a9557611a95613018565b14611aec5760405162461bcd60e51b815260206004820152602160248201527f5075626c69632073616c65206d696e74696e67206973206e6f742061637469766044820152606560f81b6064820152608401610979565b6122a2611af860015490565b611b059060ff84166131d7565b1115611b235760405162461bcd60e51b8152600401610979906131ef565b348160ff16601154611b359190613249565b1115611b535760405162461bcd60e51b815260040161097990613268565b6000611b5e336113bc565b90506003811115611bb15760405162461bcd60e51b815260206004820152601860248201527f63616e6e6f7420726571756573742074686174206d616e7900000000000000006044820152606401610979565b611184338360ff1661212b565b6060611bcb826001541190565b611c2f5760405162461bcd60e51b815260206004820152602f60248201527f4552433732314d657461646174613a2055524920717565727920666f72206e6f60448201526e3732bc34b9ba32b73a103a37b5b2b760891b6064820152608401610979565b6000611c39612440565b90506000815111611c595760405180602001604052806000815250610c8d565b80611c638461244f565b604051602001611c7492919061331c565b6040516020818303038152906040529392505050565b6000546001600160a01b03163314611cb45760405162461bcd60e51b815260040161097990613126565b6001600160a01b038116611d195760405162461bcd60e51b815260206004820152602660248201527f4f776e61626c653a206e6577206f776e657220697320746865207a65726f206160448201526564647265737360d01b6064820152608401610979565b611d22816122ee565b50565b60008281526006602052604080822080546001600160a01b0319166001600160a01b0387811691821790925591518593918516917f8c5be1e5ebec7d5bd14f71427d1e84f3dd0314c0f7b2291e5b200ac8c7c3b92591a4505050565b6000806000611d90858561254f565b91509150611d9d816125bd565b509392505050565b6000611db082612145565b80519091506000906001600160a01b0316336001600160a01b03161480611de7575033611ddc846109af565b6001600160a01b0316145b80611df957508151611df99033610802565b905080611e635760405162461bcd60e51b815260206004820152603260248201527f455243373231413a207472616e736665722063616c6c6572206973206e6f74206044820152711bdddb995c881b9bdc88185c1c1c9bdd995960721b6064820152608401610979565b846001600160a01b031682600001516001600160a01b031614611ed75760405162461bcd60e51b815260206004820152602660248201527f455243373231413a207472616e736665722066726f6d20696e636f72726563746044820152651037bbb732b960d11b6064820152608401610979565b6001600160a01b038416611f3b5760405162461bcd60e51b815260206004820152602560248201527f455243373231413a207472616e7366657220746f20746865207a65726f206164604482015264647265737360d81b6064820152608401610979565b611f4b6000848460000151611d25565b6001600160a01b0385166000908152600560205260408120805460019290611f7d9084906001600160801b031661334b565b82546101009290920a6001600160801b038181021990931691831602179091556001600160a01b03861660009081526005602052604081208054600194509092611fc991859116613373565b82546001600160801b039182166101009390930a9283029190920219909116179055506040805180820182526001600160a01b0380871682526001600160401b03428116602080850191825260008981526004909152948520935184549151909216600160a01b026001600160e01b031990911691909216171790556120508460016131d7565b6000818152600460205260409020549091506001600160a01b03166120e15761207a816001541190565b156120e15760408051808201825284516001600160a01b0390811682526020808701516001600160401b039081168285019081526000878152600490935294909120925183549451909116600160a01b026001600160e01b03199094169116179190911790555b83856001600160a01b0316876001600160a01b03167fddf252ad1be2c89b69c2b068fc378daa952ba7f163c4a11628f55a4df523b3ef60405160405180910390a45b505050505050565b611184828260405180602001604052806000815250612773565b6040805180820190915260008082526020820152612164826001541190565b6121c35760405162461bcd60e51b815260206004820152602a60248201527f455243373231413a206f776e657220717565727920666f72206e6f6e657869736044820152693a32b73a103a37b5b2b760b11b6064820152608401610979565b60007f00000000000000000000000000000000000000000000000000000000000000008310612224576122167f000000000000000000000000000000000000000000000000000000000000000084613395565b6122219060016131d7565b90505b825b81811061228d576000818152600460209081526040918290208251808401909352546001600160a01b038116808452600160a01b9091046001600160401b0316918301919091521561227a57949350505050565b5080612285816133ac565b915050612226565b5060405162461bcd60e51b815260206004820152602f60248201527f455243373231413a20756e61626c6520746f2064657465726d696e652074686560448201526e1037bbb732b91037b3103a37b5b2b760891b6064820152608401610979565b600080546001600160a01b038381166001600160a01b0319831681178455604051919092169283917f8be0079c531659141344cd1fd0a4f28419497f9722a3daafe3b4186f6b6457e09190a35050565b60006001600160a01b0384163b1561243457604051630a85bd0160e11b81526001600160a01b0385169063150b7a02906123829033908990889088906004016133c3565b6020604051808303816000875af19250505080156123bd575060408051601f3d908101601f191682019092526123ba91810190613400565b60015b61241a573d8080156123eb576040519150601f19603f3d011682016040523d82523d6000602084013e6123f0565b606091505b5080516000036124125760405162461bcd60e51b8152600401610979906132c9565b805181602001fd5b6001600160e01b031916630a85bd0160e11b149050612438565b5060015b949350505050565b6060600f80546108cc906130ec565b6060816000036124765750506040805180820190915260018152600360fc1b602082015290565b8160005b81156124a0578061248a81613187565b91506124999050600a836132b5565b915061247a565b6000816001600160401b038111156124ba576124ba612ebb565b6040519080825280601f01601f1916602001820160405280156124e4576020820181803683370190505b5090505b8415612438576124f9600183613395565b9150612506600a8661341d565b6125119060306131d7565b60f81b8183815181106125265761252661315b565b60200101906001600160f81b031916908160001a905350612548600a866132b5565b94506124e8565b60008082516041036125855760208301516040840151606085015160001a61257987828585612a4d565b945094505050506125b6565b82516040036125ae57602083015160408401516125a3868383612b3a565b9350935050506125b6565b506000905060025b9250929050565b60008160048111156125d1576125d1613018565b036125d95750565b60018160048111156125ed576125ed613018565b0361263a5760405162461bcd60e51b815260206004820152601860248201527f45434453413a20696e76616c6964207369676e617475726500000000000000006044820152606401610979565b600281600481111561264e5761264e613018565b0361269b5760405162461bcd60e51b815260206004820152601f60248201527f45434453413a20696e76616c6964207369676e6174757265206c656e677468006044820152606401610979565b60038160048111156126af576126af613018565b036127075760405162461bcd60e51b815260206004820152602260248201527f45434453413a20696e76616c6964207369676e6174757265202773272076616c604482015261756560f01b6064820152608401610979565b600481600481111561271b5761271b613018565b03611d225760405162461bcd60e51b815260206004820152602260248201527f45434453413a20696e76616c6964207369676e6174757265202776272076616c604482015261756560f01b6064820152608401610979565b6001546001600160a01b0384166127d65760405162461bcd60e51b815260206004820152602160248201527f455243373231413a206d696e7420746f20746865207a65726f206164647265736044820152607360f81b6064820152608401610979565b6127e1816001541190565b1561282e5760405162461bcd60e51b815260206004820152601d60248201527f455243373231413a20746f6b656e20616c7265616479206d696e7465640000006044820152606401610979565b7f00000000000000000000000000000000000000000000000000000000000000008311156128a95760405162461bcd60e51b815260206004820152602260248201527f455243373231413a207175616e7469747920746f206d696e7420746f6f2068696044820152610ced60f31b6064820152608401610979565b6001600160a01b0384166000908152600560209081526040918290208251808401845290546001600160801b038082168352600160801b9091041691810191909152815180830190925280519091908190612905908790613373565b6001600160801b031681526020018583602001516129239190613373565b6001600160801b039081169091526001600160a01b0380881660008181526005602090815260408083208751978301518716600160801b029790961696909617909455845180860186529182526001600160401b034281168386019081528883526004909552948120915182549451909516600160a01b026001600160e01b031990941694909216939093179190911790915582905b85811015612a425760405182906001600160a01b038916906000907fddf252ad1be2c89b69c2b068fc378daa952ba7f163c4a11628f55a4df523b3ef908290a4612a06600088848861233e565b612a225760405162461bcd60e51b8152600401610979906132c9565b81612a2c81613187565b9250508080612a3a90613187565b9150506129b9565b506001819055612123565b6000807f7fffffffffffffffffffffffffffffff5d576e7357a4501ddfe92f46681b20a0831115612a845750600090506003612b31565b8460ff16601b14158015612a9c57508460ff16601c14155b15612aad5750600090506004612b31565b6040805160008082526020820180845289905260ff881692820192909252606081018690526080810185905260019060a0016020604051602081039080840390855afa158015612b01573d6000803e3d6000fd5b5050604051601f1901519150506001600160a01b038116612b2a57600060019250925050612b31565b9150600090505b94509492505050565b6000806001600160ff1b03831660ff84901c601b01612b5b87828885612a4d565b935093505050935093915050565b828054612b75906130ec565b90600052602060002090601f016020900481019282612b975760008555612bdd565b82601f10612bb057805160ff1916838001178555612bdd565b82800160010185558215612bdd579182015b82811115612bdd578251825591602001919060010190612bc2565b50610e959291505b80821115610e955760008155600101612be5565b6001600160e01b031981168114611d2257600080fd5b600060208284031215612c2157600080fd5b8135610c8d81612bf9565b60005b83811015612c47578181015183820152602001612c2f565b83811115610bef5750506000910152565b60008151808452612c70816020860160208601612c2c565b601f01601f19169290920160200192915050565b602081526000610c8d6020830184612c58565b600060208284031215612ca957600080fd5b813560038110610c8d57600080fd5b600060208284031215612cca57600080fd5b5035919050565b80356001600160a01b0381168114612ce857600080fd5b919050565b60008060408385031215612d0057600080fd5b612d0983612cd1565b946020939093013593505050565b803560ff81168114612ce857600080fd5b600080600060408486031215612d3d57600080fd5b83356001600160401b0380821115612d5457600080fd5b818601915086601f830112612d6857600080fd5b813581811115612d7757600080fd5b8760208260051b8501011115612d8c57600080fd5b602092830195509350612da29186019050612d17565b90509250925092565b60008083601f840112612dbd57600080fd5b5081356001600160401b03811115612dd457600080fd5b6020830191508360208285010111156125b657600080fd5b60008060208385031215612dff57600080fd5b82356001600160401b03811115612e1557600080fd5b612e2185828601612dab565b90969095509350505050565b600080600060608486031215612e4257600080fd5b612e4b84612cd1565b9250612e5960208501612cd1565b9150604084013590509250925092565b600080600060408486031215612e7e57600080fd5b612e8784612d17565b925060208401356001600160401b03811115612ea257600080fd5b612eae86828701612dab565b9497909650939450505050565b634e487b7160e01b600052604160045260246000fd5b60006001600160401b0380841115612eeb57612eeb612ebb565b604051601f8501601f19908116603f01168101908282118183101715612f1357612f13612ebb565b81604052809350858152868686011115612f2c57600080fd5b858560208301376000602087830101525050509392505050565b600060208284031215612f5857600080fd5b81356001600160401b03811115612f6e57600080fd5b8201601f81018413612f7f57600080fd5b61243884823560208401612ed1565b600060208284031215612fa057600080fd5b610c8d82612cd1565b60008060408385031215612fbc57600080fd5b612fc583612cd1565b9150612fd360208401612cd1565b90509250929050565b60008060408385031215612fef57600080fd5b612ff883612cd1565b91506020830135801515811461300d57600080fd5b809150509250929050565b634e487b7160e01b600052602160045260246000fd5b602081016003831061305057634e487b7160e01b600052602160045260246000fd5b91905290565b6000806000806080858703121561306c57600080fd5b61307585612cd1565b935061308360208601612cd1565b92506040850135915060608501356001600160401b038111156130a557600080fd5b8501601f810187136130b657600080fd5b6130c587823560208401612ed1565b91505092959194509250565b6000602082840312156130e357600080fd5b610c8d82612d17565b600181811c9082168061310057607f821691505b60208210810361312057634e487b7160e01b600052602260045260246000fd5b50919050565b6020808252818101527f4f776e61626c653a2063616c6c6572206973206e6f7420746865206f776e6572604082015260600190565b634e487b7160e01b600052603260045260246000fd5b634e487b7160e01b600052601160045260246000fd5b60006001820161319957613199613171565b5060010190565b6020808252601e908201527f5468652063616c6c657220697320616e6f7468657220636f6e74726163740000604082015260600190565b600082198211156131ea576131ea613171565b500190565b6020808252818101527f507572636861736520776f756c6420657863656564206d617820746f6b656e73604082015260600190565b600060ff821660ff84168060ff0382111561324157613241613171565b019392505050565b600081600019048311821515161561326357613263613171565b500290565b6020808252601f908201527f45746865722076616c75652073656e74206973206e6f7420636f727265637400604082015260600190565b634e487b7160e01b600052601260045260246000fd5b6000826132c4576132c461329f565b500490565b60208082526033908201527f455243373231413a207472616e7366657220746f206e6f6e204552433732315260408201527232b1b2b4bb32b91034b6b83632b6b2b73a32b960691b606082015260800190565b6000835161332e818460208801612c2c565b835190830190613342818360208801612c2c565b01949350505050565b60006001600160801b038381169083168181101561336b5761336b613171565b039392505050565b60006001600160801b0380831681851680830382111561334257613342613171565b6000828210156133a7576133a7613171565b500390565b6000816133bb576133bb613171565b506000190190565b6001600160a01b03858116825284166020820152604081018390526080606082018190526000906133f690830184612c58565b9695505050505050565b60006020828403121561341257600080fd5b8151610c8d81612bf9565b60008261342c5761342c61329f565b50069056fea26469706673582212209f32c250e432c38da09b860470ae7b0fb9ada37857b0f41cd174ccda2ef3847b64736f6c634300080d0033",
    "sourcePath": "/Users/mahmoodmapara/Desktop/RiceDayV1/packages/hardhat/contracts/RiceDay.sol",
    "compiler": {
        "name": "solc",
        "version": "0.8.13+commit.abaa5c0e"
    },
    "functionHashes": {
        "COMMUNITYLEAD_ADDRESS()": "499daf72",
        "DEVELOPMENT_FUND_ADDRESS()": "cc03069f",
        "FOUNDER_ADDRESS_1()": "15da3ba6",
        "FOUNDER_ADDRESS_2()": "5098069e",
        "GENARTIST_ADDRESS()": "454b9909",
        "MAX_SUPPLY()": "32cb6b0c",
        "OXY_ADDRESS()": "b7816b0c",
        "RARITYARTIST_ADDRESS()": "b14178a7",
        "TECHLEAD_ADDRESS()": "23411393",
        "approve(address,uint256)": "095ea7b3",
        "balanceOf(address)": "70a08231",
        "changePhase(uint8)": "0721c297",
        "devMint()": "7c69e207",
        "execChefMint(uint8,bytes)": "528b1c2b",
        "getApproved(uint256)": "081812fc",
        "isApprovedForAll(address,address)": "e985e9c5",
        "name()": "06fdde03",
        "nextOwnerToExplicitlySet()": "d7224ba0",
        "owner()": "8da5cb5b",
        "ownerOf(uint256)": "6352211e",
        "phase()": "b1c9fe6e",
        "prepChefMint(bytes)": "6ca80028",
        "pricePresale()": "9147dd1b",
        "pricePublic()": "102e766d",
        "publicSaleMint(uint8)": "c76df80e",
        "recoverSender(bytes)": "177d0daf",
        "renounceOwnership()": "715018a6",
        "revealed()": "51830227",
        "safeTransferFrom(address,address,uint256)": "42842e0e",
        "safeTransferFrom(address,address,uint256,bytes)": "b88d4fde",
        "setApprovalForAll(address,bool)": "a22cb465",
        "setBaseURI(string)": "55f804b3",
        "setDevMint(address[],uint8)": "10e2ed45",
        "setPrivatePrice(uint256)": "a10f151e",
        "setPublicPrice(uint256)": "c6275255",
        "setSigners(address,address)": "91130aea",
        "supportsInterface(bytes4)": "01ffc9a7",
        "symbol()": "95d89b41",
        "testBytesReturn()": "ddc156a3",
        "tokenByIndex(uint256)": "4f6ccce7",
        "tokenOfOwnerByIndex(address,uint256)": "2f745c59",
        "tokenURI(uint256)": "c87b56dd",
        "totalSupply()": "18160ddd",
        "transferFrom(address,address,uint256)": "23b872dd",
        "transferOwnership(address)": "f2fde38b",
        "withdrawAll()": "853828b6"
    },
    "gasEstimates": {
        "creation": {
            "codeDepositCost": "2683000",
            "executionCost": "infinite",
            "totalCost": "infinite"
        },
        "external": {
            "COMMUNITYLEAD_ADDRESS()": "372",
            "DEVELOPMENT_FUND_ADDRESS()": "282",
            "FOUNDER_ADDRESS_1()": "306",
            "FOUNDER_ADDRESS_2()": "283",
            "GENARTIST_ADDRESS()": "350",
            "MAX_SUPPLY()": "285",
            "OXY_ADDRESS()": "305",
            "RARITYARTIST_ADDRESS()": "261",
            "TECHLEAD_ADDRESS()": "372",
            "approve(address,uint256)": "infinite",
            "balanceOf(address)": "2675",
            "changePhase(uint8)": "26763",
            "devMint()": "infinite",
            "execChefMint(uint8,bytes)": "infinite",
            "getApproved(uint256)": "4745",
            "isApprovedForAll(address,address)": "infinite",
            "name()": "infinite",
            "nextOwnerToExplicitlySet()": "2383",
            "owner()": "2376",
            "ownerOf(uint256)": "infinite",
            "phase()": "2435",
            "prepChefMint(bytes)": "infinite",
            "pricePresale()": "2384",
            "pricePublic()": "2341",
            "publicSaleMint(uint8)": "infinite",
            "recoverSender(bytes)": "infinite",
            "renounceOwnership()": "28204",
            "revealed()": "2388",
            "safeTransferFrom(address,address,uint256)": "infinite",
            "safeTransferFrom(address,address,uint256,bytes)": "infinite",
            "setApprovalForAll(address,bool)": "26780",
            "setBaseURI(string)": "infinite",
            "setDevMint(address[],uint8)": "infinite",
            "setPrivatePrice(uint256)": "24597",
            "setPublicPrice(uint256)": "24597",
            "setSigners(address,address)": "infinite",
            "supportsInterface(bytes4)": "612",
            "symbol()": "infinite",
            "testBytesReturn()": "301",
            "tokenByIndex(uint256)": "2538",
            "tokenOfOwnerByIndex(address,uint256)": "infinite",
            "tokenURI(uint256)": "infinite",
            "totalSupply()": "2426",
            "transferFrom(address,address,uint256)": "infinite",
            "transferOwnership(address)": "28463",
            "withdrawAll()": "infinite"
        },
        "internal": {
            "_baseURI()": "infinite"
        }
    }
}