{
    "contractName": "RiceDay",
    "abi": [
        {
            "inputs": [],
            "stateMutability": "nonpayable",
            "type": "constructor"
        },
        {
            "anonymous": false,
            "inputs": [
                {
                    "indexed": true,
                    "internalType": "address",
                    "name": "owner",
                    "type": "address"
                },
                {
                    "indexed": true,
                    "internalType": "address",
                    "name": "approved",
                    "type": "address"
                },
                {
                    "indexed": true,
                    "internalType": "uint256",
                    "name": "tokenId",
                    "type": "uint256"
                }
            ],
            "name": "Approval",
            "type": "event"
        },
        {
            "anonymous": false,
            "inputs": [
                {
                    "indexed": true,
                    "internalType": "address",
                    "name": "owner",
                    "type": "address"
                },
                {
                    "indexed": true,
                    "internalType": "address",
                    "name": "operator",
                    "type": "address"
                },
                {
                    "indexed": false,
                    "internalType": "bool",
                    "name": "approved",
                    "type": "bool"
                }
            ],
            "name": "ApprovalForAll",
            "type": "event"
        },
        {
            "anonymous": false,
            "inputs": [
                {
                    "indexed": true,
                    "internalType": "address",
                    "name": "previousOwner",
                    "type": "address"
                },
                {
                    "indexed": true,
                    "internalType": "address",
                    "name": "newOwner",
                    "type": "address"
                }
            ],
            "name": "OwnershipTransferred",
            "type": "event"
        },
        {
            "anonymous": false,
            "inputs": [
                {
                    "indexed": true,
                    "internalType": "address",
                    "name": "from",
                    "type": "address"
                },
                {
                    "indexed": true,
                    "internalType": "address",
                    "name": "to",
                    "type": "address"
                },
                {
                    "indexed": true,
                    "internalType": "uint256",
                    "name": "tokenId",
                    "type": "uint256"
                }
            ],
            "name": "Transfer",
            "type": "event"
        },
        {
            "inputs": [],
            "name": "MAX_SUPPLY",
            "outputs": [
                {
                    "internalType": "uint256",
                    "name": "",
                    "type": "uint256"
                }
            ],
            "stateMutability": "view",
            "type": "function"
        },
        {
            "inputs": [
                {
                    "internalType": "uint8",
                    "name": "numberOfTokens",
                    "type": "uint8"
                }
            ],
            "name": "allowlistMint",
            "outputs": [],
            "stateMutability": "payable",
            "type": "function"
        },
        {
            "inputs": [
                {
                    "internalType": "address",
                    "name": "to",
                    "type": "address"
                },
                {
                    "internalType": "uint256",
                    "name": "tokenId",
                    "type": "uint256"
                }
            ],
            "name": "approve",
            "outputs": [],
            "stateMutability": "nonpayable",
            "type": "function"
        },
        {
            "inputs": [
                {
                    "internalType": "address",
                    "name": "owner",
                    "type": "address"
                }
            ],
            "name": "balanceOf",
            "outputs": [
                {
                    "internalType": "uint256",
                    "name": "",
                    "type": "uint256"
                }
            ],
            "stateMutability": "view",
            "type": "function"
        },
        {
            "inputs": [],
            "name": "baseExtension",
            "outputs": [
                {
                    "internalType": "string",
                    "name": "",
                    "type": "string"
                }
            ],
            "stateMutability": "view",
            "type": "function"
        },
        {
            "inputs": [
                {
                    "internalType": "uint256",
                    "name": "tokenId",
                    "type": "uint256"
                }
            ],
            "name": "getApproved",
            "outputs": [
                {
                    "internalType": "address",
                    "name": "",
                    "type": "address"
                }
            ],
            "stateMutability": "view",
            "type": "function"
        },
        {
            "inputs": [],
            "name": "getPublicSale",
            "outputs": [
                {
                    "internalType": "bool",
                    "name": "",
                    "type": "bool"
                }
            ],
            "stateMutability": "view",
            "type": "function"
        },
        {
            "inputs": [
                {
                    "internalType": "address",
                    "name": "owner",
                    "type": "address"
                },
                {
                    "internalType": "address",
                    "name": "operator",
                    "type": "address"
                }
            ],
            "name": "isApprovedForAll",
            "outputs": [
                {
                    "internalType": "bool",
                    "name": "",
                    "type": "bool"
                }
            ],
            "stateMutability": "view",
            "type": "function"
        },
        {
            "inputs": [],
            "name": "name",
            "outputs": [
                {
                    "internalType": "string",
                    "name": "",
                    "type": "string"
                }
            ],
            "stateMutability": "view",
            "type": "function"
        },
        {
            "inputs": [],
            "name": "nextOwnerToExplicitlySet",
            "outputs": [
                {
                    "internalType": "uint256",
                    "name": "",
                    "type": "uint256"
                }
            ],
            "stateMutability": "view",
            "type": "function"
        },
        {
            "inputs": [],
            "name": "notRevealedUri",
            "outputs": [
                {
                    "internalType": "string",
                    "name": "",
                    "type": "string"
                }
            ],
            "stateMutability": "view",
            "type": "function"
        },
        {
            "inputs": [],
            "name": "owner",
            "outputs": [
                {
                    "internalType": "address",
                    "name": "",
                    "type": "address"
                }
            ],
            "stateMutability": "view",
            "type": "function"
        },
        {
            "inputs": [
                {
                    "internalType": "uint256",
                    "name": "tokenId",
                    "type": "uint256"
                }
            ],
            "name": "ownerOf",
            "outputs": [
                {
                    "internalType": "address",
                    "name": "",
                    "type": "address"
                }
            ],
            "stateMutability": "view",
            "type": "function"
        },
        {
            "inputs": [],
            "name": "preSaleStatus",
            "outputs": [
                {
                    "internalType": "bool",
                    "name": "",
                    "type": "bool"
                }
            ],
            "stateMutability": "view",
            "type": "function"
        },
        {
            "inputs": [
                {
                    "internalType": "uint8",
                    "name": "numberOfTokens",
                    "type": "uint8"
                }
            ],
            "name": "publicSaleMint",
            "outputs": [],
            "stateMutability": "payable",
            "type": "function"
        },
        {
            "inputs": [],
            "name": "publicSaleStatus",
            "outputs": [
                {
                    "internalType": "bool",
                    "name": "",
                    "type": "bool"
                }
            ],
            "stateMutability": "view",
            "type": "function"
        },
        {
            "inputs": [],
            "name": "renounceOwnership",
            "outputs": [],
            "stateMutability": "nonpayable",
            "type": "function"
        },
        {
            "inputs": [],
            "name": "revealed",
            "outputs": [
                {
                    "internalType": "bool",
                    "name": "",
                    "type": "bool"
                }
            ],
            "stateMutability": "view",
            "type": "function"
        },
        {
            "inputs": [
                {
                    "internalType": "address",
                    "name": "from",
                    "type": "address"
                },
                {
                    "internalType": "address",
                    "name": "to",
                    "type": "address"
                },
                {
                    "internalType": "uint256",
                    "name": "tokenId",
                    "type": "uint256"
                }
            ],
            "name": "safeTransferFrom",
            "outputs": [],
            "stateMutability": "nonpayable",
            "type": "function"
        },
        {
            "inputs": [
                {
                    "internalType": "address",
                    "name": "from",
                    "type": "address"
                },
                {
                    "internalType": "address",
                    "name": "to",
                    "type": "address"
                },
                {
                    "internalType": "uint256",
                    "name": "tokenId",
                    "type": "uint256"
                },
                {
                    "internalType": "bytes",
                    "name": "_data",
                    "type": "bytes"
                }
            ],
            "name": "safeTransferFrom",
            "outputs": [],
            "stateMutability": "nonpayable",
            "type": "function"
        },
        {
            "inputs": [
                {
                    "internalType": "address",
                    "name": "operator",
                    "type": "address"
                },
                {
                    "internalType": "bool",
                    "name": "approved",
                    "type": "bool"
                }
            ],
            "name": "setApprovalForAll",
            "outputs": [],
            "stateMutability": "nonpayable",
            "type": "function"
        },
        {
            "inputs": [
                {
                    "internalType": "string",
                    "name": "_newBaseURI",
                    "type": "string"
                }
            ],
            "name": "setBaseURI",
            "outputs": [],
            "stateMutability": "nonpayable",
            "type": "function"
        },
        {
            "inputs": [
                {
                    "internalType": "string",
                    "name": "_notRevealedURI",
                    "type": "string"
                }
            ],
            "name": "setNotRevealedURI",
            "outputs": [],
            "stateMutability": "nonpayable",
            "type": "function"
        },
        {
            "inputs": [
                {
                    "internalType": "bytes4",
                    "name": "interfaceId",
                    "type": "bytes4"
                }
            ],
            "name": "supportsInterface",
            "outputs": [
                {
                    "internalType": "bool",
                    "name": "",
                    "type": "bool"
                }
            ],
            "stateMutability": "view",
            "type": "function"
        },
        {
            "inputs": [],
            "name": "symbol",
            "outputs": [
                {
                    "internalType": "string",
                    "name": "",
                    "type": "string"
                }
            ],
            "stateMutability": "view",
            "type": "function"
        },
        {
            "inputs": [
                {
                    "internalType": "uint8",
                    "name": "numberOfTokens",
                    "type": "uint8"
                }
            ],
            "name": "teamMint",
            "outputs": [],
            "stateMutability": "payable",
            "type": "function"
        },
        {
            "inputs": [
                {
                    "internalType": "bool",
                    "name": "sale",
                    "type": "bool"
                }
            ],
            "name": "togglePreSale",
            "outputs": [],
            "stateMutability": "nonpayable",
            "type": "function"
        },
        {
            "inputs": [
                {
                    "internalType": "bool",
                    "name": "sale",
                    "type": "bool"
                }
            ],
            "name": "togglePublicSale",
            "outputs": [],
            "stateMutability": "nonpayable",
            "type": "function"
        },
        {
            "inputs": [
                {
                    "internalType": "uint256",
                    "name": "index",
                    "type": "uint256"
                }
            ],
            "name": "tokenByIndex",
            "outputs": [
                {
                    "internalType": "uint256",
                    "name": "",
                    "type": "uint256"
                }
            ],
            "stateMutability": "view",
            "type": "function"
        },
        {
            "inputs": [
                {
                    "internalType": "address",
                    "name": "owner",
                    "type": "address"
                },
                {
                    "internalType": "uint256",
                    "name": "index",
                    "type": "uint256"
                }
            ],
            "name": "tokenOfOwnerByIndex",
            "outputs": [
                {
                    "internalType": "uint256",
                    "name": "",
                    "type": "uint256"
                }
            ],
            "stateMutability": "view",
            "type": "function"
        },
        {
            "inputs": [
                {
                    "internalType": "uint256",
                    "name": "tokenId",
                    "type": "uint256"
                }
            ],
            "name": "tokenURI",
            "outputs": [
                {
                    "internalType": "string",
                    "name": "",
                    "type": "string"
                }
            ],
            "stateMutability": "view",
            "type": "function"
        },
        {
            "inputs": [],
            "name": "totalSupply",
            "outputs": [
                {
                    "internalType": "uint256",
                    "name": "",
                    "type": "uint256"
                }
            ],
            "stateMutability": "view",
            "type": "function"
        },
        {
            "inputs": [
                {
                    "internalType": "address",
                    "name": "from",
                    "type": "address"
                },
                {
                    "internalType": "address",
                    "name": "to",
                    "type": "address"
                },
                {
                    "internalType": "uint256",
                    "name": "tokenId",
                    "type": "uint256"
                }
            ],
            "name": "transferFrom",
            "outputs": [],
            "stateMutability": "nonpayable",
            "type": "function"
        },
        {
            "inputs": [
                {
                    "internalType": "address",
                    "name": "newOwner",
                    "type": "address"
                }
            ],
            "name": "transferOwnership",
            "outputs": [],
            "stateMutability": "nonpayable",
            "type": "function"
        },
        {
            "inputs": [],
            "name": "withdrawMoney",
            "outputs": [],
            "stateMutability": "nonpayable",
            "type": "function"
        }
    ],
    "bytecode": "60006001819055600855600a805461ffff19169055610100604052600560c081905264173539b7b760d91b60e09081526200003e91600b91906200014c565b50600f805460ff191660011790553480156200005957600080fd5b50604051806040016040528060078152602001665269636544617960c81b815250604051806040016040528060048152602001635249434560e01b81525060056122a2620000b6620000b0620000f860201b60201c565b620000fc565b8351620000cb9060029060208701906200014c565b508251620000e19060039060208601906200014c565b5060a091909152608052505060016009556200022f565b3390565b600080546001600160a01b038381166001600160a01b0319831681178455604051919092169283917f8be0079c531659141344cd1fd0a4f28419497f9722a3daafe3b4186f6b6457e09190a35050565b8280546200015a90620001f2565b90600052602060002090601f0160209004810192826200017e5760008555620001c9565b82601f106200019957805160ff1916838001178555620001c9565b82800160010185558215620001c9579182015b82811115620001c9578251825591602001919060010190620001ac565b50620001d7929150620001db565b5090565b5b80821115620001d75760008155600101620001dc565b600181811c908216806200020757607f821691505b602082108114156200022957634e487b7160e01b600052602260045260246000fd5b50919050565b60805160a0516125e162000260600039600081816118d9015281816119030152611c360152600050506125e16000f3fe6080604052600436106102045760003560e01c8063715018a611610118578063b88d4fde116100a0578063d35ea4561161006f578063d35ea4561461057a578063d7224ba01461059a578063e985e9c5146105b0578063f2c4ce1e146105f9578063f2fde38b1461061957600080fd5b8063b88d4fde14610512578063c668286214610532578063c76df80e14610547578063c87b56dd1461055a57600080fd5b806395d89b41116100e757806395d89b411461049b578063a22cb465146104b0578063a9a81265146104d0578063ac446002146104e3578063b6c693e5146104f857600080fd5b8063715018a6146104355780637b6717801461044a5780638c3cefa31461045d5780638da5cb5b1461047d57600080fd5b806332cb6b0c1161019b5780634f6ccce71161016a5780634f6ccce71461039b57806351830227146103bb57806355f804b3146103d55780636352211e146103f557806370a082311461041557600080fd5b806332cb6b0c1461032e57806342842e0e14610344578063464bd640146103645780634bf530551461038357600080fd5b8063095ea7b3116101d7578063095ea7b3146102ad57806318160ddd146102cf57806323b872dd146102ee5780632f745c591461030e57600080fd5b806301ffc9a71461020957806306fdde031461023e578063081812fc14610260578063081c8c4414610298575b600080fd5b34801561021557600080fd5b50610229610224366004611efa565b610639565b60405190151581526020015b60405180910390f35b34801561024a57600080fd5b506102536106a6565b6040516102359190611f6f565b34801561026c57600080fd5b5061028061027b366004611f82565b610738565b6040516001600160a01b039091168152602001610235565b3480156102a457600080fd5b506102536107c8565b3480156102b957600080fd5b506102cd6102c8366004611fb7565b610856565b005b3480156102db57600080fd5b506001545b604051908152602001610235565b3480156102fa57600080fd5b506102cd610309366004611fe1565b61096e565b34801561031a57600080fd5b506102e0610329366004611fb7565b610979565b34801561033a57600080fd5b506102e06122a281565b34801561035057600080fd5b506102cd61035f366004611fe1565b610af2565b34801561037057600080fd5b50600a5461022990610100900460ff1681565b34801561038f57600080fd5b50600a5460ff16610229565b3480156103a757600080fd5b506102e06103b6366004611f82565b610b0d565b3480156103c757600080fd5b50600f546102299060ff1681565b3480156103e157600080fd5b506102cd6103f03660046120a9565b610b76565b34801561040157600080fd5b50610280610410366004611f82565b610bb7565b34801561042157600080fd5b506102e06104303660046120f2565b610bc9565b34801561044157600080fd5b506102cd610c5a565b6102cd61045836600461210d565b610c90565b34801561046957600080fd5b506102cd610478366004612140565b610d54565b34801561048957600080fd5b506000546001600160a01b0316610280565b3480156104a757600080fd5b50610253610d91565b3480156104bc57600080fd5b506102cd6104cb36600461215b565b610da0565b6102cd6104de36600461210d565b610e65565b3480156104ef57600080fd5b506102cd610f7b565b34801561050457600080fd5b50600a546102299060ff1681565b34801561051e57600080fd5b506102cd61052d36600461218e565b611090565b34801561053e57600080fd5b506102536110c9565b6102cd61055536600461210d565b6110d6565b34801561056657600080fd5b50610253610575366004611f82565b6111f3565b34801561058657600080fd5b506102cd610595366004612140565b611357565b3480156105a657600080fd5b506102e060085481565b3480156105bc57600080fd5b506102296105cb36600461220a565b6001600160a01b03918216600090815260076020908152604080832093909416825291909152205460ff1690565b34801561060557600080fd5b506102cd6106143660046120a9565b61139b565b34801561062557600080fd5b506102cd6106343660046120f2565b6113d8565b60006001600160e01b031982166380ac58cd60e01b148061066a57506001600160e01b03198216635b5e139f60e01b145b8061068557506001600160e01b0319821663780e9d6360e01b145b806106a057506301ffc9a760e01b6001600160e01b03198316145b92915050565b6060600280546106b590612234565b80601f01602080910402602001604051908101604052809291908181526020018280546106e190612234565b801561072e5780601f106107035761010080835404028352916020019161072e565b820191906000526020600020905b81548152906001019060200180831161071157829003601f168201915b5050505050905090565b6000610745826001541190565b6107ac5760405162461bcd60e51b815260206004820152602d60248201527f455243373231413a20617070726f76656420717565727920666f72206e6f6e6560448201526c3c34b9ba32b73a103a37b5b2b760991b60648201526084015b60405180910390fd5b506000908152600660205260409020546001600160a01b031690565b601080546107d590612234565b80601f016020809104026020016040519081016040528092919081815260200182805461080190612234565b801561084e5780601f106108235761010080835404028352916020019161084e565b820191906000526020600020905b81548152906001019060200180831161083157829003601f168201915b505050505081565b600061086182610bb7565b9050806001600160a01b0316836001600160a01b031614156108d05760405162461bcd60e51b815260206004820152602260248201527f455243373231413a20617070726f76616c20746f2063757272656e74206f776e60448201526132b960f11b60648201526084016107a3565b336001600160a01b03821614806108ec57506108ec81336105cb565b61095e5760405162461bcd60e51b815260206004820152603960248201527f455243373231413a20617070726f76652063616c6c6572206973206e6f74206f60448201527f776e6572206e6f7220617070726f76656420666f7220616c6c0000000000000060648201526084016107a3565b610969838383611473565b505050565b6109698383836114cf565b600061098483610bc9565b82106109dd5760405162461bcd60e51b815260206004820152602260248201527f455243373231413a206f776e657220696e646578206f7574206f6620626f756e604482015261647360f01b60648201526084016107a3565b60006109e860015490565b905060008060005b83811015610a92576000818152600460209081526040918290208251808401909352546001600160a01b038116808452600160a01b90910467ffffffffffffffff169183019190915215610a4357805192505b876001600160a01b0316836001600160a01b03161415610a7f5786841415610a71575093506106a092505050565b83610a7b81612285565b9450505b5080610a8a81612285565b9150506109f0565b5060405162461bcd60e51b815260206004820152602e60248201527f455243373231413a20756e61626c6520746f2067657420746f6b656e206f662060448201526d0deeedccae440c4f240d2dcc8caf60931b60648201526084016107a3565b61096983838360405180602001604052806000815250611090565b6000610b1860015490565b8210610b725760405162461bcd60e51b815260206004820152602360248201527f455243373231413a20676c6f62616c20696e646578206f7574206f6620626f756044820152626e647360e81b60648201526084016107a3565b5090565b6000546001600160a01b03163314610ba05760405162461bcd60e51b81526004016107a3906122a0565b8051610bb390600e906020840190611e54565b5050565b6000610bc282611857565b5192915050565b60006001600160a01b038216610c355760405162461bcd60e51b815260206004820152602b60248201527f455243373231413a2062616c616e636520717565727920666f7220746865207a60448201526a65726f206164647265737360a81b60648201526084016107a3565b506001600160a01b03166000908152600560205260409020546001600160801b031690565b6000546001600160a01b03163314610c845760405162461bcd60e51b81526004016107a3906122a0565b610c8e6000611a01565b565b323314610caf5760405162461bcd60e51b81526004016107a3906122d5565b336000908152600d602052604090205460ff908116908216811015610ce65760405162461bcd60e51b81526004016107a39061230c565b6122a2610cf260015490565b610cff9060ff851661234e565b1115610d1d5760405162461bcd60e51b81526004016107a390612366565b610d27828261239b565b336000818152600d60205260409020805460ff191660ff9390931692909217909155610bb3906001611a51565b6000546001600160a01b03163314610d7e5760405162461bcd60e51b81526004016107a3906122a0565b600a805460ff1916911515919091179055565b6060600380546106b590612234565b6001600160a01b038216331415610df95760405162461bcd60e51b815260206004820152601a60248201527f455243373231413a20617070726f766520746f2063616c6c657200000000000060448201526064016107a3565b3360008181526007602090815260408083206001600160a01b03871680855290835292819020805460ff191686151590811790915590519081529192917f17307eab39ab6107e8899845ad3d59bd9653f200f220920489ca2b5937696c31910160405180910390a35050565b323314610e845760405162461bcd60e51b81526004016107a3906122d5565b600a54610100900460ff16610edb5760405162461bcd60e51b815260206004820152601e60248201527f5072652d73616c65206d696e74696e67206973206e6f7420616374697665000060448201526064016107a3565b336000908152600c602052604090205460ff908116908216811015610f125760405162461bcd60e51b81526004016107a39061230c565b6122a2610f1e60015490565b610f2b9060ff851661234e565b1115610f495760405162461bcd60e51b81526004016107a390612366565b610f53828261239b565b336000818152600c60205260409020805460ff191660ff938416179055610bb3918416611a51565b6000546001600160a01b03163314610fa55760405162461bcd60e51b81526004016107a3906122a0565b60026009541415610ff85760405162461bcd60e51b815260206004820152601f60248201527f5265656e7472616e637947756172643a207265656e7472616e742063616c6c0060448201526064016107a3565b6002600955604051600090339047908381818185875af1925050503d806000811461103f576040519150601f19603f3d011682016040523d82523d6000602084013e611044565b606091505b50509050806110885760405162461bcd60e51b815260206004820152601060248201526f2a3930b739b332b9103330b4b632b21760811b60448201526064016107a3565b506001600955565b61109b8484846114cf565b6110a784848484611a6b565b6110c35760405162461bcd60e51b81526004016107a3906123be565b50505050565b600b80546107d590612234565b3233146110f55760405162461bcd60e51b81526004016107a3906122d5565b600a5460ff166111515760405162461bcd60e51b815260206004820152602160248201527f5075626c69632073616c65206d696e74696e67206973206e6f742061637469766044820152606560f81b60648201526084016107a3565b6122a261115d60015490565b61116a9060ff841661234e565b11156111885760405162461bcd60e51b81526004016107a390612366565b600061119333610bc9565b9050600a8111156111e65760405162461bcd60e51b815260206004820152601860248201527f63616e6e6f7420726571756573742074686174206d616e79000000000000000060448201526064016107a3565b610bb3338360ff16611a51565b6060611200826001541190565b6112645760405162461bcd60e51b815260206004820152602f60248201527f4552433732314d657461646174613a2055524920717565727920666f72206e6f60448201526e3732bc34b9ba32b73a103a37b5b2b760891b60648201526084016107a3565b600f5460ff16611300576010805461127b90612234565b80601f01602080910402602001604051908101604052809291908181526020018280546112a790612234565b80156112f45780601f106112c9576101008083540402835291602001916112f4565b820191906000526020600020905b8154815290600101906020018083116112d757829003601f168201915b50505050509050919050565b600061130a611b6a565b9050600081511161132a5760405180602001604052806000815250611350565b8083600b60405160200161134093929190612411565b6040516020818303038152906040525b9392505050565b6000546001600160a01b031633146113815760405162461bcd60e51b81526004016107a3906122a0565b600a80549115156101000261ff0019909216919091179055565b6000546001600160a01b031633146113c55760405162461bcd60e51b81526004016107a3906122a0565b8051610bb3906010906020840190611e54565b6000546001600160a01b031633146114025760405162461bcd60e51b81526004016107a3906122a0565b6001600160a01b0381166114675760405162461bcd60e51b815260206004820152602660248201527f4f776e61626c653a206e6577206f776e657220697320746865207a65726f206160448201526564647265737360d01b60648201526084016107a3565b61147081611a01565b50565b60008281526006602052604080822080546001600160a01b0319166001600160a01b0387811691821790925591518593918516917f8c5be1e5ebec7d5bd14f71427d1e84f3dd0314c0f7b2291e5b200ac8c7c3b92591a4505050565b60006114da82611857565b80519091506000906001600160a01b0316336001600160a01b0316148061151157503361150684610738565b6001600160a01b0316145b806115235750815161152390336105cb565b90508061158d5760405162461bcd60e51b815260206004820152603260248201527f455243373231413a207472616e736665722063616c6c6572206973206e6f74206044820152711bdddb995c881b9bdc88185c1c1c9bdd995960721b60648201526084016107a3565b846001600160a01b031682600001516001600160a01b0316146116015760405162461bcd60e51b815260206004820152602660248201527f455243373231413a207472616e736665722066726f6d20696e636f72726563746044820152651037bbb732b960d11b60648201526084016107a3565b6001600160a01b0384166116655760405162461bcd60e51b815260206004820152602560248201527f455243373231413a207472616e7366657220746f20746865207a65726f206164604482015264647265737360d81b60648201526084016107a3565b6116756000848460000151611473565b6001600160a01b03851660009081526005602052604081208054600192906116a79084906001600160801b03166124d0565b82546101009290920a6001600160801b038181021990931691831602179091556001600160a01b038616600090815260056020526040812080546001945090926116f3918591166124f8565b82546001600160801b039182166101009390930a9283029190920219909116179055506040805180820182526001600160a01b03808716825267ffffffffffffffff428116602080850191825260008981526004909152948520935184549151909216600160a01b026001600160e01b0319909116919092161717905561177b84600161234e565b6000818152600460205260409020549091506001600160a01b031661180d576117a5816001541190565b1561180d5760408051808201825284516001600160a01b03908116825260208087015167ffffffffffffffff9081168285019081526000878152600490935294909120925183549451909116600160a01b026001600160e01b03199094169116179190911790555b83856001600160a01b0316876001600160a01b03167fddf252ad1be2c89b69c2b068fc378daa952ba7f163c4a11628f55a4df523b3ef60405160405180910390a45b505050505050565b6040805180820190915260008082526020820152611876826001541190565b6118d55760405162461bcd60e51b815260206004820152602a60248201527f455243373231413a206f776e657220717565727920666f72206e6f6e657869736044820152693a32b73a103a37b5b2b760b11b60648201526084016107a3565b60007f00000000000000000000000000000000000000000000000000000000000000008310611936576119287f000000000000000000000000000000000000000000000000000000000000000084612523565b61193390600161234e565b90505b825b8181106119a0576000818152600460209081526040918290208251808401909352546001600160a01b038116808452600160a01b90910467ffffffffffffffff16918301919091521561198d57949350505050565b50806119988161253a565b915050611938565b5060405162461bcd60e51b815260206004820152602f60248201527f455243373231413a20756e61626c6520746f2064657465726d696e652074686560448201526e1037bbb732b91037b3103a37b5b2b760891b60648201526084016107a3565b600080546001600160a01b038381166001600160a01b0319831681178455604051919092169283917f8be0079c531659141344cd1fd0a4f28419497f9722a3daafe3b4186f6b6457e09190a35050565b610bb3828260405180602001604052806000815250611b79565b60006001600160a01b0384163b15611b5e57604051630a85bd0160e11b81526001600160a01b0385169063150b7a0290611aaf903390899088908890600401612551565b6020604051808303816000875af1925050508015611aea575060408051601f3d908101601f19168201909252611ae79181019061258e565b60015b611b44573d808015611b18576040519150601f19603f3d011682016040523d82523d6000602084013e611b1d565b606091505b508051611b3c5760405162461bcd60e51b81526004016107a3906123be565b805181602001fd5b6001600160e01b031916630a85bd0160e11b149050611b62565b5060015b949350505050565b6060600e80546106b590612234565b6001546001600160a01b038416611bdc5760405162461bcd60e51b815260206004820152602160248201527f455243373231413a206d696e7420746f20746865207a65726f206164647265736044820152607360f81b60648201526084016107a3565b611be7816001541190565b15611c345760405162461bcd60e51b815260206004820152601d60248201527f455243373231413a20746f6b656e20616c7265616479206d696e74656400000060448201526064016107a3565b7f0000000000000000000000000000000000000000000000000000000000000000831115611caf5760405162461bcd60e51b815260206004820152602260248201527f455243373231413a207175616e7469747920746f206d696e7420746f6f2068696044820152610ced60f31b60648201526084016107a3565b6001600160a01b0384166000908152600560209081526040918290208251808401845290546001600160801b038082168352600160801b9091041691810191909152815180830190925280519091908190611d0b9087906124f8565b6001600160801b03168152602001858360200151611d2991906124f8565b6001600160801b039081169091526001600160a01b0380881660008181526005602090815260408083208751978301518716600160801b0297909616969096179094558451808601865291825267ffffffffffffffff4281168386019081528883526004909552948120915182549451909516600160a01b026001600160e01b031990941694909216939093179190911790915582905b85811015611e495760405182906001600160a01b038916906000907fddf252ad1be2c89b69c2b068fc378daa952ba7f163c4a11628f55a4df523b3ef908290a4611e0d6000888488611a6b565b611e295760405162461bcd60e51b81526004016107a3906123be565b81611e3381612285565b9250508080611e4190612285565b915050611dc0565b50600181905561184f565b828054611e6090612234565b90600052602060002090601f016020900481019282611e825760008555611ec8565b82601f10611e9b57805160ff1916838001178555611ec8565b82800160010185558215611ec8579182015b82811115611ec8578251825591602001919060010190611ead565b50610b729291505b80821115610b725760008155600101611ed0565b6001600160e01b03198116811461147057600080fd5b600060208284031215611f0c57600080fd5b813561135081611ee4565b60005b83811015611f32578181015183820152602001611f1a565b838111156110c35750506000910152565b60008151808452611f5b816020860160208601611f17565b601f01601f19169290920160200192915050565b6020815260006113506020830184611f43565b600060208284031215611f9457600080fd5b5035919050565b80356001600160a01b0381168114611fb257600080fd5b919050565b60008060408385031215611fca57600080fd5b611fd383611f9b565b946020939093013593505050565b600080600060608486031215611ff657600080fd5b611fff84611f9b565b925061200d60208501611f9b565b9150604084013590509250925092565b634e487b7160e01b600052604160045260246000fd5b600067ffffffffffffffff8084111561204e5761204e61201d565b604051601f8501601f19908116603f011681019082821181831017156120765761207661201d565b8160405280935085815286868601111561208f57600080fd5b858560208301376000602087830101525050509392505050565b6000602082840312156120bb57600080fd5b813567ffffffffffffffff8111156120d257600080fd5b8201601f810184136120e357600080fd5b611b6284823560208401612033565b60006020828403121561210457600080fd5b61135082611f9b565b60006020828403121561211f57600080fd5b813560ff8116811461135057600080fd5b80358015158114611fb257600080fd5b60006020828403121561215257600080fd5b61135082612130565b6000806040838503121561216e57600080fd5b61217783611f9b565b915061218560208401612130565b90509250929050565b600080600080608085870312156121a457600080fd5b6121ad85611f9b565b93506121bb60208601611f9b565b925060408501359150606085013567ffffffffffffffff8111156121de57600080fd5b8501601f810187136121ef57600080fd5b6121fe87823560208401612033565b91505092959194509250565b6000806040838503121561221d57600080fd5b61222683611f9b565b915061218560208401611f9b565b600181811c9082168061224857607f821691505b6020821081141561226957634e487b7160e01b600052602260045260246000fd5b50919050565b634e487b7160e01b600052601160045260246000fd5b60006000198214156122995761229961226f565b5060010190565b6020808252818101527f4f776e61626c653a2063616c6c6572206973206e6f7420746865206f776e6572604082015260600190565b6020808252601e908201527f5468652063616c6c657220697320616e6f7468657220636f6e74726163740000604082015260600190565b60208082526022908201527f4578636565646564204d617820417661696c61626c6520746f20507572636861604082015261736560f01b606082015260800190565b600082198211156123615761236161226f565b500190565b6020808252818101527f507572636861736520776f756c6420657863656564206d617820746f6b656e73604082015260600190565b600060ff821660ff8416808210156123b5576123b561226f565b90039392505050565b60208082526033908201527f455243373231413a207472616e7366657220746f206e6f6e204552433732315260408201527232b1b2b4bb32b91034b6b83632b6b2b73a32b960691b606082015260800190565b6000845160206124248285838a01611f17565b81840191508582526000855481600182811c91508083168061244757607f831692505b85831081141561246557634e487b7160e01b85526022600452602485fd5b808015612479576001811461248e576124bf565b60ff19851688880152838801870195506124bf565b60008b81526020902060005b858110156124b55781548a82018a015290840190880161249a565b5050868489010195505b50939b9a5050505050505050505050565b60006001600160801b03838116908316818110156124f0576124f061226f565b039392505050565b60006001600160801b0380831681851680830382111561251a5761251a61226f565b01949350505050565b6000828210156125355761253561226f565b500390565b6000816125495761254961226f565b506000190190565b6001600160a01b038581168252841660208201526040810183905260806060820181905260009061258490830184611f43565b9695505050505050565b6000602082840312156125a057600080fd5b815161135081611ee456fea26469706673582212203fbd47da2c046656f9bb00be9183ac8ee3238ca1d2ffeadfff97887394250ea864736f6c634300080c0033",
    "sourcePath": "/Users/mahmoodmapara/Desktop/RiceDayV1/packages/hardhat/contracts/RiceDay.sol",
    "compiler": {
        "name": "solc",
        "version": "0.8.12+commit.f00d7308"
    },
    "functionHashes": {
        "MAX_SUPPLY()": "32cb6b0c",
        "allowlistMint(uint8)": "a9a81265",
        "approve(address,uint256)": "095ea7b3",
        "balanceOf(address)": "70a08231",
        "baseExtension()": "c6682862",
        "getApproved(uint256)": "081812fc",
        "getPublicSale()": "4bf53055",
        "isApprovedForAll(address,address)": "e985e9c5",
        "name()": "06fdde03",
        "nextOwnerToExplicitlySet()": "d7224ba0",
        "notRevealedUri()": "081c8c44",
        "owner()": "8da5cb5b",
        "ownerOf(uint256)": "6352211e",
        "preSaleStatus()": "464bd640",
        "publicSaleMint(uint8)": "c76df80e",
        "publicSaleStatus()": "b6c693e5",
        "renounceOwnership()": "715018a6",
        "revealed()": "51830227",
        "safeTransferFrom(address,address,uint256)": "42842e0e",
        "safeTransferFrom(address,address,uint256,bytes)": "b88d4fde",
        "setApprovalForAll(address,bool)": "a22cb465",
        "setBaseURI(string)": "55f804b3",
        "setNotRevealedURI(string)": "f2c4ce1e",
        "supportsInterface(bytes4)": "01ffc9a7",
        "symbol()": "95d89b41",
        "teamMint(uint8)": "7b671780",
        "togglePreSale(bool)": "d35ea456",
        "togglePublicSale(bool)": "8c3cefa3",
        "tokenByIndex(uint256)": "4f6ccce7",
        "tokenOfOwnerByIndex(address,uint256)": "2f745c59",
        "tokenURI(uint256)": "c87b56dd",
        "totalSupply()": "18160ddd",
        "transferFrom(address,address,uint256)": "23b872dd",
        "transferOwnership(address)": "f2fde38b",
        "withdrawMoney()": "ac446002"
    },
    "gasEstimates": {
        "creation": {
            "codeDepositCost": "1939400",
            "executionCost": "infinite",
            "totalCost": "infinite"
        },
        "external": {
            "MAX_SUPPLY()": "241",
            "allowlistMint(uint8)": "infinite",
            "approve(address,uint256)": "infinite",
            "balanceOf(address)": "2740",
            "baseExtension()": "infinite",
            "getApproved(uint256)": "4723",
            "getPublicSale()": "2405",
            "isApprovedForAll(address,address)": "infinite",
            "name()": "infinite",
            "nextOwnerToExplicitlySet()": "2361",
            "notRevealedUri()": "infinite",
            "owner()": "2443",
            "ownerOf(uint256)": "infinite",
            "preSaleStatus()": "2400",
            "publicSaleMint(uint8)": "infinite",
            "publicSaleStatus()": "2432",
            "renounceOwnership()": "28160",
            "revealed()": "2366",
            "safeTransferFrom(address,address,uint256)": "infinite",
            "safeTransferFrom(address,address,uint256,bytes)": "infinite",
            "setApprovalForAll(address,bool)": "infinite",
            "setBaseURI(string)": "infinite",
            "setNotRevealedURI(string)": "infinite",
            "supportsInterface(bytes4)": "612",
            "symbol()": "infinite",
            "teamMint(uint8)": "infinite",
            "togglePreSale(bool)": "26727",
            "togglePublicSale(bool)": "26759",
            "tokenByIndex(uint256)": "2538",
            "tokenOfOwnerByIndex(address,uint256)": "infinite",
            "tokenURI(uint256)": "infinite",
            "totalSupply()": "2349",
            "transferFrom(address,address,uint256)": "infinite",
            "transferOwnership(address)": "28441",
            "withdrawMoney()": "infinite"
        },
        "internal": {
            "_baseURI()": "infinite"
        }
    }
}