{
    "contractName": "RiceDay",
    "abi": [
        {
            "inputs": [],
            "stateMutability": "nonpayable",
            "type": "constructor"
        },
        {
            "anonymous": false,
            "inputs": [
                {
                    "indexed": true,
                    "internalType": "address",
                    "name": "owner",
                    "type": "address"
                },
                {
                    "indexed": true,
                    "internalType": "address",
                    "name": "approved",
                    "type": "address"
                },
                {
                    "indexed": true,
                    "internalType": "uint256",
                    "name": "tokenId",
                    "type": "uint256"
                }
            ],
            "name": "Approval",
            "type": "event"
        },
        {
            "anonymous": false,
            "inputs": [
                {
                    "indexed": true,
                    "internalType": "address",
                    "name": "owner",
                    "type": "address"
                },
                {
                    "indexed": true,
                    "internalType": "address",
                    "name": "operator",
                    "type": "address"
                },
                {
                    "indexed": false,
                    "internalType": "bool",
                    "name": "approved",
                    "type": "bool"
                }
            ],
            "name": "ApprovalForAll",
            "type": "event"
        },
        {
            "anonymous": false,
            "inputs": [
                {
                    "indexed": true,
                    "internalType": "address",
                    "name": "previousOwner",
                    "type": "address"
                },
                {
                    "indexed": true,
                    "internalType": "address",
                    "name": "newOwner",
                    "type": "address"
                }
            ],
            "name": "OwnershipTransferred",
            "type": "event"
        },
        {
            "anonymous": false,
            "inputs": [
                {
                    "indexed": true,
                    "internalType": "address",
                    "name": "from",
                    "type": "address"
                },
                {
                    "indexed": true,
                    "internalType": "address",
                    "name": "to",
                    "type": "address"
                },
                {
                    "indexed": true,
                    "internalType": "uint256",
                    "name": "tokenId",
                    "type": "uint256"
                }
            ],
            "name": "Transfer",
            "type": "event"
        },
        {
            "inputs": [],
            "name": "COMMUNITYLEAD_ADDRESS",
            "outputs": [
                {
                    "internalType": "address",
                    "name": "",
                    "type": "address"
                }
            ],
            "stateMutability": "view",
            "type": "function"
        },
        {
            "inputs": [],
            "name": "DEVELOPMENT_FUND_ADDRESS",
            "outputs": [
                {
                    "internalType": "address",
                    "name": "",
                    "type": "address"
                }
            ],
            "stateMutability": "view",
            "type": "function"
        },
        {
            "inputs": [],
            "name": "FOUNDER_ADDRESS_1",
            "outputs": [
                {
                    "internalType": "address",
                    "name": "",
                    "type": "address"
                }
            ],
            "stateMutability": "view",
            "type": "function"
        },
        {
            "inputs": [],
            "name": "FOUNDER_ADDRESS_2",
            "outputs": [
                {
                    "internalType": "address",
                    "name": "",
                    "type": "address"
                }
            ],
            "stateMutability": "view",
            "type": "function"
        },
        {
            "inputs": [],
            "name": "GENARTIST_ADDRESS",
            "outputs": [
                {
                    "internalType": "address",
                    "name": "",
                    "type": "address"
                }
            ],
            "stateMutability": "view",
            "type": "function"
        },
        {
            "inputs": [],
            "name": "MAX_SUPPLY",
            "outputs": [
                {
                    "internalType": "uint256",
                    "name": "",
                    "type": "uint256"
                }
            ],
            "stateMutability": "view",
            "type": "function"
        },
        {
            "inputs": [],
            "name": "OXY_ADDRESS",
            "outputs": [
                {
                    "internalType": "address",
                    "name": "",
                    "type": "address"
                }
            ],
            "stateMutability": "view",
            "type": "function"
        },
        {
            "inputs": [],
            "name": "RARITYARTIST_ADDRESS",
            "outputs": [
                {
                    "internalType": "address",
                    "name": "",
                    "type": "address"
                }
            ],
            "stateMutability": "view",
            "type": "function"
        },
        {
            "inputs": [],
            "name": "TECHLEAD_ADDRESS",
            "outputs": [
                {
                    "internalType": "address",
                    "name": "",
                    "type": "address"
                }
            ],
            "stateMutability": "view",
            "type": "function"
        },
        {
            "inputs": [
                {
                    "internalType": "address",
                    "name": "to",
                    "type": "address"
                },
                {
                    "internalType": "uint256",
                    "name": "tokenId",
                    "type": "uint256"
                }
            ],
            "name": "approve",
            "outputs": [],
            "stateMutability": "nonpayable",
            "type": "function"
        },
        {
            "inputs": [
                {
                    "internalType": "address",
                    "name": "owner",
                    "type": "address"
                }
            ],
            "name": "balanceOf",
            "outputs": [
                {
                    "internalType": "uint256",
                    "name": "",
                    "type": "uint256"
                }
            ],
            "stateMutability": "view",
            "type": "function"
        },
        {
            "inputs": [
                {
                    "internalType": "enum RiceDay.SalePhase",
                    "name": "phase_",
                    "type": "uint8"
                }
            ],
            "name": "changePhase",
            "outputs": [],
            "stateMutability": "nonpayable",
            "type": "function"
        },
        {
            "inputs": [],
            "name": "devMint",
            "outputs": [],
            "stateMutability": "payable",
            "type": "function"
        },
        {
            "inputs": [],
            "name": "execChefMint",
            "outputs": [],
            "stateMutability": "payable",
            "type": "function"
        },
        {
            "inputs": [
                {
                    "internalType": "uint256",
                    "name": "tokenId",
                    "type": "uint256"
                }
            ],
            "name": "getApproved",
            "outputs": [
                {
                    "internalType": "address",
                    "name": "",
                    "type": "address"
                }
            ],
            "stateMutability": "view",
            "type": "function"
        },
        {
            "inputs": [
                {
                    "internalType": "address",
                    "name": "owner",
                    "type": "address"
                },
                {
                    "internalType": "address",
                    "name": "operator",
                    "type": "address"
                }
            ],
            "name": "isApprovedForAll",
            "outputs": [
                {
                    "internalType": "bool",
                    "name": "",
                    "type": "bool"
                }
            ],
            "stateMutability": "view",
            "type": "function"
        },
        {
            "inputs": [],
            "name": "name",
            "outputs": [
                {
                    "internalType": "string",
                    "name": "",
                    "type": "string"
                }
            ],
            "stateMutability": "view",
            "type": "function"
        },
        {
            "inputs": [],
            "name": "nextOwnerToExplicitlySet",
            "outputs": [
                {
                    "internalType": "uint256",
                    "name": "",
                    "type": "uint256"
                }
            ],
            "stateMutability": "view",
            "type": "function"
        },
        {
            "inputs": [],
            "name": "owner",
            "outputs": [
                {
                    "internalType": "address",
                    "name": "",
                    "type": "address"
                }
            ],
            "stateMutability": "view",
            "type": "function"
        },
        {
            "inputs": [
                {
                    "internalType": "uint256",
                    "name": "tokenId",
                    "type": "uint256"
                }
            ],
            "name": "ownerOf",
            "outputs": [
                {
                    "internalType": "address",
                    "name": "",
                    "type": "address"
                }
            ],
            "stateMutability": "view",
            "type": "function"
        },
        {
            "inputs": [],
            "name": "phase",
            "outputs": [
                {
                    "internalType": "enum RiceDay.SalePhase",
                    "name": "",
                    "type": "uint8"
                }
            ],
            "stateMutability": "view",
            "type": "function"
        },
        {
            "inputs": [],
            "name": "prepChefMint",
            "outputs": [],
            "stateMutability": "payable",
            "type": "function"
        },
        {
            "inputs": [],
            "name": "pricePresale",
            "outputs": [
                {
                    "internalType": "uint256",
                    "name": "",
                    "type": "uint256"
                }
            ],
            "stateMutability": "view",
            "type": "function"
        },
        {
            "inputs": [],
            "name": "pricePublic",
            "outputs": [
                {
                    "internalType": "uint256",
                    "name": "",
                    "type": "uint256"
                }
            ],
            "stateMutability": "view",
            "type": "function"
        },
        {
            "inputs": [
                {
                    "internalType": "uint8",
                    "name": "numberOfTokens",
                    "type": "uint8"
                }
            ],
            "name": "publicSaleMint",
            "outputs": [],
            "stateMutability": "payable",
            "type": "function"
        },
        {
            "inputs": [],
            "name": "renounceOwnership",
            "outputs": [],
            "stateMutability": "nonpayable",
            "type": "function"
        },
        {
            "inputs": [],
            "name": "revealed",
            "outputs": [
                {
                    "internalType": "bool",
                    "name": "",
                    "type": "bool"
                }
            ],
            "stateMutability": "view",
            "type": "function"
        },
        {
            "inputs": [
                {
                    "internalType": "address",
                    "name": "from",
                    "type": "address"
                },
                {
                    "internalType": "address",
                    "name": "to",
                    "type": "address"
                },
                {
                    "internalType": "uint256",
                    "name": "tokenId",
                    "type": "uint256"
                }
            ],
            "name": "safeTransferFrom",
            "outputs": [],
            "stateMutability": "nonpayable",
            "type": "function"
        },
        {
            "inputs": [
                {
                    "internalType": "address",
                    "name": "from",
                    "type": "address"
                },
                {
                    "internalType": "address",
                    "name": "to",
                    "type": "address"
                },
                {
                    "internalType": "uint256",
                    "name": "tokenId",
                    "type": "uint256"
                },
                {
                    "internalType": "bytes",
                    "name": "_data",
                    "type": "bytes"
                }
            ],
            "name": "safeTransferFrom",
            "outputs": [],
            "stateMutability": "nonpayable",
            "type": "function"
        },
        {
            "inputs": [
                {
                    "internalType": "address",
                    "name": "operator",
                    "type": "address"
                },
                {
                    "internalType": "bool",
                    "name": "approved",
                    "type": "bool"
                }
            ],
            "name": "setApprovalForAll",
            "outputs": [],
            "stateMutability": "nonpayable",
            "type": "function"
        },
        {
            "inputs": [
                {
                    "internalType": "string",
                    "name": "_newBaseURI",
                    "type": "string"
                }
            ],
            "name": "setBaseURI",
            "outputs": [],
            "stateMutability": "nonpayable",
            "type": "function"
        },
        {
            "inputs": [
                {
                    "internalType": "address[]",
                    "name": "_addresses",
                    "type": "address[]"
                },
                {
                    "internalType": "uint8",
                    "name": "amount",
                    "type": "uint8"
                }
            ],
            "name": "setDevMint",
            "outputs": [],
            "stateMutability": "nonpayable",
            "type": "function"
        },
        {
            "inputs": [
                {
                    "internalType": "uint256",
                    "name": "newPrice",
                    "type": "uint256"
                }
            ],
            "name": "setPrivatePrice",
            "outputs": [],
            "stateMutability": "nonpayable",
            "type": "function"
        },
        {
            "inputs": [
                {
                    "internalType": "uint256",
                    "name": "newPrice",
                    "type": "uint256"
                }
            ],
            "name": "setPublicPrice",
            "outputs": [],
            "stateMutability": "nonpayable",
            "type": "function"
        },
        {
            "inputs": [
                {
                    "internalType": "bytes4",
                    "name": "interfaceId",
                    "type": "bytes4"
                }
            ],
            "name": "supportsInterface",
            "outputs": [
                {
                    "internalType": "bool",
                    "name": "",
                    "type": "bool"
                }
            ],
            "stateMutability": "view",
            "type": "function"
        },
        {
            "inputs": [],
            "name": "symbol",
            "outputs": [
                {
                    "internalType": "string",
                    "name": "",
                    "type": "string"
                }
            ],
            "stateMutability": "view",
            "type": "function"
        },
        {
            "inputs": [
                {
                    "internalType": "uint256",
                    "name": "index",
                    "type": "uint256"
                }
            ],
            "name": "tokenByIndex",
            "outputs": [
                {
                    "internalType": "uint256",
                    "name": "",
                    "type": "uint256"
                }
            ],
            "stateMutability": "view",
            "type": "function"
        },
        {
            "inputs": [
                {
                    "internalType": "address",
                    "name": "owner",
                    "type": "address"
                },
                {
                    "internalType": "uint256",
                    "name": "index",
                    "type": "uint256"
                }
            ],
            "name": "tokenOfOwnerByIndex",
            "outputs": [
                {
                    "internalType": "uint256",
                    "name": "",
                    "type": "uint256"
                }
            ],
            "stateMutability": "view",
            "type": "function"
        },
        {
            "inputs": [
                {
                    "internalType": "uint256",
                    "name": "tokenId",
                    "type": "uint256"
                }
            ],
            "name": "tokenURI",
            "outputs": [
                {
                    "internalType": "string",
                    "name": "",
                    "type": "string"
                }
            ],
            "stateMutability": "view",
            "type": "function"
        },
        {
            "inputs": [],
            "name": "totalSupply",
            "outputs": [
                {
                    "internalType": "uint256",
                    "name": "",
                    "type": "uint256"
                }
            ],
            "stateMutability": "view",
            "type": "function"
        },
        {
            "inputs": [
                {
                    "internalType": "address",
                    "name": "from",
                    "type": "address"
                },
                {
                    "internalType": "address",
                    "name": "to",
                    "type": "address"
                },
                {
                    "internalType": "uint256",
                    "name": "tokenId",
                    "type": "uint256"
                }
            ],
            "name": "transferFrom",
            "outputs": [],
            "stateMutability": "nonpayable",
            "type": "function"
        },
        {
            "inputs": [
                {
                    "internalType": "address",
                    "name": "newOwner",
                    "type": "address"
                }
            ],
            "name": "transferOwnership",
            "outputs": [],
            "stateMutability": "nonpayable",
            "type": "function"
        },
        {
            "inputs": [],
            "name": "withdrawAll",
            "outputs": [],
            "stateMutability": "nonpayable",
            "type": "function"
        }
    ],
    "bytecode": "60c060405260006001818155600891909155600a805460ff19908116909155600d80549091169091179055670214e8348c4f0000600e556701bc16d674ec8000600f553480156200004f57600080fd5b50604051806040016040528060078152602001665269636544617960c81b815250604051806040016040528060048152602001635249434560e01b81525060036122a2620000ac620000a6620000ee60201b60201c565b620000f2565b8351620000c190600290602087019062000142565b508251620000d790600390602086019062000142565b5060a0919091526080525050600160095562000224565b3390565b600080546001600160a01b038381166001600160a01b0319831681178455604051919092169283917f8be0079c531659141344cd1fd0a4f28419497f9722a3daafe3b4186f6b6457e09190a35050565b8280546200015090620001e8565b90600052602060002090601f016020900481019282620001745760008555620001bf565b82601f106200018f57805160ff1916838001178555620001bf565b82800160010185558215620001bf579182015b82811115620001bf578251825591602001919060010190620001a2565b50620001cd929150620001d1565b5090565b5b80821115620001cd5760008155600101620001d2565b600181811c90821680620001fd57607f821691505b6020821081036200021e57634e487b7160e01b600052602260045260246000fd5b50919050565b60805160a0516129c36200025560003960008181611ba701528181611bd101526120080152600050506129c36000f3fe60806040526004361061025c5760003560e01c80636c32121811610144578063b1c9fe6e116100b6578063c76df80e1161007a578063c76df80e146106dd578063c87b56dd146106f0578063cc03069f14610675578063d7224ba014610710578063e985e9c514610726578063f2fde38b1461076f57600080fd5b8063b1c9fe6e1461064e578063b7816b0c14610675578063b88d4fde1461069d578063bb223ce414610543578063c6275255146106bd57600080fd5b80638da5cb5b116101085780638da5cb5b1461059d5780639147dd1b146105bb57806395d89b41146105d1578063a10f151e146105e6578063a22cb46514610606578063b14178a71461062657600080fd5b80636c3212181461054357806370a082311461054b578063715018a61461056b5780637c69e20714610580578063853828b61461058857600080fd5b806323b872dd116101dd578063499daf72116101a1578063499daf72146104795780634f6ccce7146104a15780635098069e146104c157806351830227146104e957806355f804b3146105035780636352211e1461052357600080fd5b806323b872dd146103db5780632f745c59146103fb57806332cb6b0c1461041b57806342842e0e14610431578063454b99091461045157600080fd5b8063102e766d11610224578063102e766d1461033257806310e2ed451461035657806315da3ba61461037657806318160ddd1461039e57806323411393146103b357600080fd5b806301ffc9a71461026157806306fdde03146102965780630721c297146102b8578063081812fc146102da578063095ea7b314610312575b600080fd5b34801561026d57600080fd5b5061028161027c3660046122cc565b61078f565b60405190151581526020015b60405180910390f35b3480156102a257600080fd5b506102ab6107fc565b60405161028d9190612341565b3480156102c457600080fd5b506102d86102d3366004612354565b61088e565b005b3480156102e657600080fd5b506102fa6102f5366004612375565b6108e8565b6040516001600160a01b03909116815260200161028d565b34801561031e57600080fd5b506102d861032d3660046123aa565b610973565b34801561033e57600080fd5b50610348600e5481565b60405190815260200161028d565b34801561036257600080fd5b506102d86103713660046123e5565b610a8a565b34801561038257600080fd5b506102fa734d343925df00700c4838112f22eba49a0d4d07ae81565b3480156103aa57600080fd5b50600154610348565b3480156103bf57600080fd5b506102fa7319b260a039eda8b896f4c7463445fb94b4c86a8581565b3480156103e757600080fd5b506102d86103f6366004612469565b610b2e565b34801561040757600080fd5b506103486104163660046123aa565b610b39565b34801561042757600080fd5b506103486122a281565b34801561043d57600080fd5b506102d861044c366004612469565b610cb0565b34801561045d57600080fd5b506102fa73c54003e08b17f127196eb3562bc2085bed3332d581565b34801561048557600080fd5b506102fa735774883c9ddab26954d0d2cabea2f97dbee7cc1a81565b3480156104ad57600080fd5b506103486104bc366004612375565b610ccb565b3480156104cd57600080fd5b506102fa73c929b6bd739a8564bcb35e978afe4fff5b6c3cef81565b3480156104f557600080fd5b50600d546102819060ff1681565b34801561050f57600080fd5b506102d861051e366004612531565b610d34565b34801561052f57600080fd5b506102fa61053e366004612375565b610d75565b6102d8610d87565b34801561055757600080fd5b5061034861056636600461257a565b610da8565b34801561057757600080fd5b506102d8610e39565b6102d8610e6d565b34801561059457600080fd5b506102d8610f7e565b3480156105a957600080fd5b506000546001600160a01b03166102fa565b3480156105c757600080fd5b50610348600f5481565b3480156105dd57600080fd5b506102ab6112b4565b3480156105f257600080fd5b506102d8610601366004612375565b6112c3565b34801561061257600080fd5b506102d8610621366004612595565b6112f2565b34801561063257600080fd5b506102fa73a1b636d2e7d1c53eba425e3e76b9bbecf4d5da5681565b34801561065a57600080fd5b50600a546106689060ff1681565b60405161028d91906125e7565b34801561068157600080fd5b506102fa73b77df549e859919f0c8d09dfc22ca1d489a6708481565b3480156106a957600080fd5b506102d86106b836600461260f565b6113b6565b3480156106c957600080fd5b506102d86106d8366004612375565b6113e9565b6102d86106eb36600461268b565b611418565b3480156106fc57600080fd5b506102ab61070b366004612375565b6115d9565b34801561071c57600080fd5b5061034860085481565b34801561073257600080fd5b506102816107413660046126a6565b6001600160a01b03918216600090815260076020908152604080832093909416825291909152205460ff1690565b34801561077b57600080fd5b506102d861078a36600461257a565b6116a6565b60006001600160e01b031982166380ac58cd60e01b14806107c057506001600160e01b03198216635b5e139f60e01b145b806107db57506001600160e01b0319821663780e9d6360e01b145b806107f657506301ffc9a760e01b6001600160e01b03198316145b92915050565b60606002805461080b906126d9565b80601f0160208091040260200160405190810160405280929190818152602001828054610837906126d9565b80156108845780601f1061085957610100808354040283529160200191610884565b820191906000526020600020905b81548152906001019060200180831161086757829003601f168201915b5050505050905090565b6000546001600160a01b031633146108c15760405162461bcd60e51b81526004016108b890612713565b60405180910390fd5b600a805482919060ff191660018360028111156108e0576108e06125d1565b021790555050565b60006108f5826001541190565b6109575760405162461bcd60e51b815260206004820152602d60248201527f455243373231413a20617070726f76656420717565727920666f72206e6f6e6560448201526c3c34b9ba32b73a103a37b5b2b760991b60648201526084016108b8565b506000908152600660205260409020546001600160a01b031690565b600061097e82610d75565b9050806001600160a01b0316836001600160a01b0316036109ec5760405162461bcd60e51b815260206004820152602260248201527f455243373231413a20617070726f76616c20746f2063757272656e74206f776e60448201526132b960f11b60648201526084016108b8565b336001600160a01b0382161480610a085750610a088133610741565b610a7a5760405162461bcd60e51b815260206004820152603960248201527f455243373231413a20617070726f76652063616c6c6572206973206e6f74206f60448201527f776e6572206e6f7220617070726f76656420666f7220616c6c0000000000000060648201526084016108b8565b610a85838383611741565b505050565b6000546001600160a01b03163314610ab45760405162461bcd60e51b81526004016108b890612713565b60005b82811015610b285781600b6000868685818110610ad657610ad6612748565b9050602002016020810190610aeb919061257a565b6001600160a01b031681526020810191909152604001600020805460ff191660ff9290921691909117905580610b2081612774565b915050610ab7565b50505050565b610a8583838361179d565b6000610b4483610da8565b8210610b9d5760405162461bcd60e51b815260206004820152602260248201527f455243373231413a206f776e657220696e646578206f7574206f6620626f756e604482015261647360f01b60648201526084016108b8565b6000610ba860015490565b905060008060005b83811015610c50576000818152600460209081526040918290208251808401909352546001600160a01b038116808452600160a01b90910467ffffffffffffffff169183019190915215610c0357805192505b876001600160a01b0316836001600160a01b031603610c3d57868403610c2f575093506107f692505050565b83610c3981612774565b9450505b5080610c4881612774565b915050610bb0565b5060405162461bcd60e51b815260206004820152602e60248201527f455243373231413a20756e61626c6520746f2067657420746f6b656e206f662060448201526d0deeedccae440c4f240d2dcc8caf60931b60648201526084016108b8565b610a85838383604051806020016040528060008152506113b6565b6000610cd660015490565b8210610d305760405162461bcd60e51b815260206004820152602360248201527f455243373231413a20676c6f62616c20696e646578206f7574206f6620626f756044820152626e647360e81b60648201526084016108b8565b5090565b6000546001600160a01b03163314610d5e5760405162461bcd60e51b81526004016108b890612713565b8051610d7190600c906020840190612226565b5050565b6000610d8082611b25565b5192915050565b323314610da65760405162461bcd60e51b81526004016108b89061278d565b565b60006001600160a01b038216610e145760405162461bcd60e51b815260206004820152602b60248201527f455243373231413a2062616c616e636520717565727920666f7220746865207a60448201526a65726f206164647265737360a81b60648201526084016108b8565b506001600160a01b03166000908152600560205260409020546001600160801b031690565b6000546001600160a01b03163314610e635760405162461bcd60e51b81526004016108b890612713565b610da66000611ccf565b323314610e8c5760405162461bcd60e51b81526004016108b89061278d565b336000908152600b602052604090205460ff16610edd5760405162461bcd60e51b815260206004820152600f60248201526e185b1c9958591e4818db185a5b5959608a1b60448201526064016108b8565b336000908152600b602052604090205460ff166122a2610efc60015490565b610f099060ff84166127c4565b1115610f575760405162461bcd60e51b815260206004820181905260248201527f507572636861736520776f756c6420657863656564206d617820746f6b656e7360448201526064016108b8565b610f64338260ff16611d1f565b50336000908152600b60205260409020805460ff19169055565b6000546001600160a01b03163314610fa85760405162461bcd60e51b81526004016108b890612713565b4780610fe55760405162461bcd60e51b815260206004820152600c60248201526b042616c616e636520697320360a41b60448201526064016108b8565b73b77df549e859919f0c8d09dfc22ca1d489a670846108fc61271061100c846113886127dc565b6110169190612811565b6040518115909202916000818181858888f1935050505015801561103e573d6000803e3d6000fd5b5073b77df549e859919f0c8d09dfc22ca1d489a670846108fc612710611066846104e26127dc565b6110709190612811565b6040518115909202916000818181858888f19350505050158015611098573d6000803e3d6000fd5b50734d343925df00700c4838112f22eba49a0d4d07ae6108fc6127106110c0846103c56127dc565b6110ca9190612811565b6040518115909202916000818181858888f193505050501580156110f2573d6000803e3d6000fd5b5073c929b6bd739a8564bcb35e978afe4fff5b6c3cef6108fc61271061111a846103c56127dc565b6111249190612811565b6040518115909202916000818181858888f1935050505015801561114c573d6000803e3d6000fd5b50735774883c9ddab26954d0d2cabea2f97dbee7cc1a6108fc612710611174846101c26127dc565b61117e9190612811565b6040518115909202916000818181858888f193505050501580156111a6573d6000803e3d6000fd5b507319b260a039eda8b896f4c7463445fb94b4c86a856108fc6127106111ce846101c26127dc565b6111d89190612811565b6040518115909202916000818181858888f19350505050158015611200573d6000803e3d6000fd5b5073c54003e08b17f127196eb3562bc2085bed3332d56108fc612710611228846102586127dc565b6112329190612811565b6040518115909202916000818181858888f1935050505015801561125a573d6000803e3d6000fd5b5073a1b636d2e7d1c53eba425e3e76b9bbecf4d5da566108fc612710611282846101406127dc565b61128c9190612811565b6040518115909202916000818181858888f19350505050158015610d71573d6000803e3d6000fd5b60606003805461080b906126d9565b6000546001600160a01b031633146112ed5760405162461bcd60e51b81526004016108b890612713565b600f55565b336001600160a01b0383160361134a5760405162461bcd60e51b815260206004820152601a60248201527f455243373231413a20617070726f766520746f2063616c6c657200000000000060448201526064016108b8565b3360008181526007602090815260408083206001600160a01b03871680855290835292819020805460ff191686151590811790915590519081529192917f17307eab39ab6107e8899845ad3d59bd9653f200f220920489ca2b5937696c31910160405180910390a35050565b6113c184848461179d565b6113cd84848484611d39565b610b285760405162461bcd60e51b81526004016108b890612825565b6000546001600160a01b031633146114135760405162461bcd60e51b81526004016108b890612713565b600e55565b3233146114375760405162461bcd60e51b81526004016108b89061278d565b6002600a5460ff166002811115611450576114506125d1565b146114a75760405162461bcd60e51b815260206004820152602160248201527f5075626c69632073616c65206d696e74696e67206973206e6f742061637469766044820152606560f81b60648201526084016108b8565b6122a26114b360015490565b6114c09060ff84166127c4565b111561150e5760405162461bcd60e51b815260206004820181905260248201527f507572636861736520776f756c6420657863656564206d617820746f6b656e7360448201526064016108b8565b348160ff16600e5461152091906127dc565b111561156e5760405162461bcd60e51b815260206004820152601f60248201527f45746865722076616c75652073656e74206973206e6f7420636f72726563740060448201526064016108b8565b600061157933610da8565b9050600a8111156115cc5760405162461bcd60e51b815260206004820152601860248201527f63616e6e6f7420726571756573742074686174206d616e79000000000000000060448201526064016108b8565b610d71338360ff16611d1f565b60606115e6826001541190565b61164a5760405162461bcd60e51b815260206004820152602f60248201527f4552433732314d657461646174613a2055524920717565727920666f72206e6f60448201526e3732bc34b9ba32b73a103a37b5b2b760891b60648201526084016108b8565b6000611654611e3b565b90506000815111611674576040518060200160405280600081525061169f565b8061167e84611e4a565b60405160200161168f929190612878565b6040516020818303038152906040525b9392505050565b6000546001600160a01b031633146116d05760405162461bcd60e51b81526004016108b890612713565b6001600160a01b0381166117355760405162461bcd60e51b815260206004820152602660248201527f4f776e61626c653a206e6577206f776e657220697320746865207a65726f206160448201526564647265737360d01b60648201526084016108b8565b61173e81611ccf565b50565b60008281526006602052604080822080546001600160a01b0319166001600160a01b0387811691821790925591518593918516917f8c5be1e5ebec7d5bd14f71427d1e84f3dd0314c0f7b2291e5b200ac8c7c3b92591a4505050565b60006117a882611b25565b80519091506000906001600160a01b0316336001600160a01b031614806117df5750336117d4846108e8565b6001600160a01b0316145b806117f1575081516117f19033610741565b90508061185b5760405162461bcd60e51b815260206004820152603260248201527f455243373231413a207472616e736665722063616c6c6572206973206e6f74206044820152711bdddb995c881b9bdc88185c1c1c9bdd995960721b60648201526084016108b8565b846001600160a01b031682600001516001600160a01b0316146118cf5760405162461bcd60e51b815260206004820152602660248201527f455243373231413a207472616e736665722066726f6d20696e636f72726563746044820152651037bbb732b960d11b60648201526084016108b8565b6001600160a01b0384166119335760405162461bcd60e51b815260206004820152602560248201527f455243373231413a207472616e7366657220746f20746865207a65726f206164604482015264647265737360d81b60648201526084016108b8565b6119436000848460000151611741565b6001600160a01b03851660009081526005602052604081208054600192906119759084906001600160801b03166128a7565b82546101009290920a6001600160801b038181021990931691831602179091556001600160a01b038616600090815260056020526040812080546001945090926119c1918591166128cf565b82546001600160801b039182166101009390930a9283029190920219909116179055506040805180820182526001600160a01b03808716825267ffffffffffffffff428116602080850191825260008981526004909152948520935184549151909216600160a01b026001600160e01b03199091169190921617179055611a498460016127c4565b6000818152600460205260409020549091506001600160a01b0316611adb57611a73816001541190565b15611adb5760408051808201825284516001600160a01b03908116825260208087015167ffffffffffffffff9081168285019081526000878152600490935294909120925183549451909116600160a01b026001600160e01b03199094169116179190911790555b83856001600160a01b0316876001600160a01b03167fddf252ad1be2c89b69c2b068fc378daa952ba7f163c4a11628f55a4df523b3ef60405160405180910390a45b505050505050565b6040805180820190915260008082526020820152611b44826001541190565b611ba35760405162461bcd60e51b815260206004820152602a60248201527f455243373231413a206f776e657220717565727920666f72206e6f6e657869736044820152693a32b73a103a37b5b2b760b11b60648201526084016108b8565b60007f00000000000000000000000000000000000000000000000000000000000000008310611c0457611bf67f0000000000000000000000000000000000000000000000000000000000000000846128f1565b611c019060016127c4565b90505b825b818110611c6e576000818152600460209081526040918290208251808401909352546001600160a01b038116808452600160a01b90910467ffffffffffffffff169183019190915215611c5b57949350505050565b5080611c6681612908565b915050611c06565b5060405162461bcd60e51b815260206004820152602f60248201527f455243373231413a20756e61626c6520746f2064657465726d696e652074686560448201526e1037bbb732b91037b3103a37b5b2b760891b60648201526084016108b8565b600080546001600160a01b038381166001600160a01b0319831681178455604051919092169283917f8be0079c531659141344cd1fd0a4f28419497f9722a3daafe3b4186f6b6457e09190a35050565b610d71828260405180602001604052806000815250611f4b565b60006001600160a01b0384163b15611e2f57604051630a85bd0160e11b81526001600160a01b0385169063150b7a0290611d7d90339089908890889060040161291f565b6020604051808303816000875af1925050508015611db8575060408051601f3d908101601f19168201909252611db59181019061295c565b60015b611e15573d808015611de6576040519150601f19603f3d011682016040523d82523d6000602084013e611deb565b606091505b508051600003611e0d5760405162461bcd60e51b81526004016108b890612825565b805181602001fd5b6001600160e01b031916630a85bd0160e11b149050611e33565b5060015b949350505050565b6060600c805461080b906126d9565b606081600003611e715750506040805180820190915260018152600360fc1b602082015290565b8160005b8115611e9b5780611e8581612774565b9150611e949050600a83612811565b9150611e75565b60008167ffffffffffffffff811115611eb657611eb66124a5565b6040519080825280601f01601f191660200182016040528015611ee0576020820181803683370190505b5090505b8415611e3357611ef56001836128f1565b9150611f02600a86612979565b611f0d9060306127c4565b60f81b818381518110611f2257611f22612748565b60200101906001600160f81b031916908160001a905350611f44600a86612811565b9450611ee4565b6001546001600160a01b038416611fae5760405162461bcd60e51b815260206004820152602160248201527f455243373231413a206d696e7420746f20746865207a65726f206164647265736044820152607360f81b60648201526084016108b8565b611fb9816001541190565b156120065760405162461bcd60e51b815260206004820152601d60248201527f455243373231413a20746f6b656e20616c7265616479206d696e74656400000060448201526064016108b8565b7f00000000000000000000000000000000000000000000000000000000000000008311156120815760405162461bcd60e51b815260206004820152602260248201527f455243373231413a207175616e7469747920746f206d696e7420746f6f2068696044820152610ced60f31b60648201526084016108b8565b6001600160a01b0384166000908152600560209081526040918290208251808401845290546001600160801b038082168352600160801b90910416918101919091528151808301909252805190919081906120dd9087906128cf565b6001600160801b031681526020018583602001516120fb91906128cf565b6001600160801b039081169091526001600160a01b0380881660008181526005602090815260408083208751978301518716600160801b0297909616969096179094558451808601865291825267ffffffffffffffff4281168386019081528883526004909552948120915182549451909516600160a01b026001600160e01b031990941694909216939093179190911790915582905b8581101561221b5760405182906001600160a01b038916906000907fddf252ad1be2c89b69c2b068fc378daa952ba7f163c4a11628f55a4df523b3ef908290a46121df6000888488611d39565b6121fb5760405162461bcd60e51b81526004016108b890612825565b8161220581612774565b925050808061221390612774565b915050612192565b506001819055611b1d565b828054612232906126d9565b90600052602060002090601f016020900481019282612254576000855561229a565b82601f1061226d57805160ff191683800117855561229a565b8280016001018555821561229a579182015b8281111561229a57825182559160200191906001019061227f565b50610d309291505b80821115610d3057600081556001016122a2565b6001600160e01b03198116811461173e57600080fd5b6000602082840312156122de57600080fd5b813561169f816122b6565b60005b838110156123045781810151838201526020016122ec565b83811115610b285750506000910152565b6000815180845261232d8160208601602086016122e9565b601f01601f19169290920160200192915050565b60208152600061169f6020830184612315565b60006020828403121561236657600080fd5b81356003811061169f57600080fd5b60006020828403121561238757600080fd5b5035919050565b80356001600160a01b03811681146123a557600080fd5b919050565b600080604083850312156123bd57600080fd5b6123c68361238e565b946020939093013593505050565b803560ff811681146123a557600080fd5b6000806000604084860312156123fa57600080fd5b833567ffffffffffffffff8082111561241257600080fd5b818601915086601f83011261242657600080fd5b81358181111561243557600080fd5b8760208260051b850101111561244a57600080fd5b60209283019550935061246091860190506123d4565b90509250925092565b60008060006060848603121561247e57600080fd5b6124878461238e565b92506124956020850161238e565b9150604084013590509250925092565b634e487b7160e01b600052604160045260246000fd5b600067ffffffffffffffff808411156124d6576124d66124a5565b604051601f8501601f19908116603f011681019082821181831017156124fe576124fe6124a5565b8160405280935085815286868601111561251757600080fd5b858560208301376000602087830101525050509392505050565b60006020828403121561254357600080fd5b813567ffffffffffffffff81111561255a57600080fd5b8201601f8101841361256b57600080fd5b611e33848235602084016124bb565b60006020828403121561258c57600080fd5b61169f8261238e565b600080604083850312156125a857600080fd5b6125b18361238e565b9150602083013580151581146125c657600080fd5b809150509250929050565b634e487b7160e01b600052602160045260246000fd5b602081016003831061260957634e487b7160e01b600052602160045260246000fd5b91905290565b6000806000806080858703121561262557600080fd5b61262e8561238e565b935061263c6020860161238e565b925060408501359150606085013567ffffffffffffffff81111561265f57600080fd5b8501601f8101871361267057600080fd5b61267f878235602084016124bb565b91505092959194509250565b60006020828403121561269d57600080fd5b61169f826123d4565b600080604083850312156126b957600080fd5b6126c28361238e565b91506126d06020840161238e565b90509250929050565b600181811c908216806126ed57607f821691505b60208210810361270d57634e487b7160e01b600052602260045260246000fd5b50919050565b6020808252818101527f4f776e61626c653a2063616c6c6572206973206e6f7420746865206f776e6572604082015260600190565b634e487b7160e01b600052603260045260246000fd5b634e487b7160e01b600052601160045260246000fd5b6000600182016127865761278661275e565b5060010190565b6020808252601e908201527f5468652063616c6c657220697320616e6f7468657220636f6e74726163740000604082015260600190565b600082198211156127d7576127d761275e565b500190565b60008160001904831182151516156127f6576127f661275e565b500290565b634e487b7160e01b600052601260045260246000fd5b600082612820576128206127fb565b500490565b60208082526033908201527f455243373231413a207472616e7366657220746f206e6f6e204552433732315260408201527232b1b2b4bb32b91034b6b83632b6b2b73a32b960691b606082015260800190565b6000835161288a8184602088016122e9565b83519083019061289e8183602088016122e9565b01949350505050565b60006001600160801b03838116908316818110156128c7576128c761275e565b039392505050565b60006001600160801b0380831681851680830382111561289e5761289e61275e565b6000828210156129035761290361275e565b500390565b6000816129175761291761275e565b506000190190565b6001600160a01b038581168252841660208201526040810183905260806060820181905260009061295290830184612315565b9695505050505050565b60006020828403121561296e57600080fd5b815161169f816122b6565b600082612988576129886127fb565b50069056fea26469706673582212203619aa5c41b6d566bfb679f7002146e0b257fc3bb6a6cc4896be3208f39e765364736f6c634300080d0033",
    "sourcePath": "/Users/mahmoodmapara/Desktop/RiceDayV1/packages/hardhat/contracts/RiceDay.sol",
    "compiler": {
        "name": "solc",
        "version": "0.8.13+commit.abaa5c0e"
    },
    "functionHashes": {
        "COMMUNITYLEAD_ADDRESS()": "499daf72",
        "DEVELOPMENT_FUND_ADDRESS()": "cc03069f",
        "FOUNDER_ADDRESS_1()": "15da3ba6",
        "FOUNDER_ADDRESS_2()": "5098069e",
        "GENARTIST_ADDRESS()": "454b9909",
        "MAX_SUPPLY()": "32cb6b0c",
        "OXY_ADDRESS()": "b7816b0c",
        "RARITYARTIST_ADDRESS()": "b14178a7",
        "TECHLEAD_ADDRESS()": "23411393",
        "approve(address,uint256)": "095ea7b3",
        "balanceOf(address)": "70a08231",
        "changePhase(uint8)": "0721c297",
        "devMint()": "7c69e207",
        "execChefMint()": "bb223ce4",
        "getApproved(uint256)": "081812fc",
        "isApprovedForAll(address,address)": "e985e9c5",
        "name()": "06fdde03",
        "nextOwnerToExplicitlySet()": "d7224ba0",
        "owner()": "8da5cb5b",
        "ownerOf(uint256)": "6352211e",
        "phase()": "b1c9fe6e",
        "prepChefMint()": "6c321218",
        "pricePresale()": "9147dd1b",
        "pricePublic()": "102e766d",
        "publicSaleMint(uint8)": "c76df80e",
        "renounceOwnership()": "715018a6",
        "revealed()": "51830227",
        "safeTransferFrom(address,address,uint256)": "42842e0e",
        "safeTransferFrom(address,address,uint256,bytes)": "b88d4fde",
        "setApprovalForAll(address,bool)": "a22cb465",
        "setBaseURI(string)": "55f804b3",
        "setDevMint(address[],uint8)": "10e2ed45",
        "setPrivatePrice(uint256)": "a10f151e",
        "setPublicPrice(uint256)": "c6275255",
        "supportsInterface(bytes4)": "01ffc9a7",
        "symbol()": "95d89b41",
        "tokenByIndex(uint256)": "4f6ccce7",
        "tokenOfOwnerByIndex(address,uint256)": "2f745c59",
        "tokenURI(uint256)": "c87b56dd",
        "totalSupply()": "18160ddd",
        "transferFrom(address,address,uint256)": "23b872dd",
        "transferOwnership(address)": "f2fde38b",
        "withdrawAll()": "853828b6"
    },
    "gasEstimates": {
        "creation": {
            "codeDepositCost": "2138200",
            "executionCost": "infinite",
            "totalCost": "infinite"
        },
        "external": {
            "COMMUNITYLEAD_ADDRESS()": "261",
            "DEVELOPMENT_FUND_ADDRESS()": "304",
            "FOUNDER_ADDRESS_1()": "306",
            "FOUNDER_ADDRESS_2()": "305",
            "GENARTIST_ADDRESS()": "350",
            "MAX_SUPPLY()": "285",
            "OXY_ADDRESS()": "283",
            "RARITYARTIST_ADDRESS()": "371",
            "TECHLEAD_ADDRESS()": "350",
            "approve(address,uint256)": "infinite",
            "balanceOf(address)": "2675",
            "changePhase(uint8)": "26751",
            "devMint()": "infinite",
            "execChefMint()": "380",
            "getApproved(uint256)": "4745",
            "isApprovedForAll(address,address)": "infinite",
            "name()": "infinite",
            "nextOwnerToExplicitlySet()": "2405",
            "owner()": "2376",
            "ownerOf(uint256)": "infinite",
            "phase()": "2396",
            "prepChefMint()": "315",
            "pricePresale()": "2362",
            "pricePublic()": "2341",
            "publicSaleMint(uint8)": "infinite",
            "renounceOwnership()": "28204",
            "revealed()": "2410",
            "safeTransferFrom(address,address,uint256)": "infinite",
            "safeTransferFrom(address,address,uint256,bytes)": "infinite",
            "setApprovalForAll(address,bool)": "26758",
            "setBaseURI(string)": "infinite",
            "setDevMint(address[],uint8)": "infinite",
            "setPrivatePrice(uint256)": "24575",
            "setPublicPrice(uint256)": "24597",
            "supportsInterface(bytes4)": "612",
            "symbol()": "infinite",
            "tokenByIndex(uint256)": "2560",
            "tokenOfOwnerByIndex(address,uint256)": "infinite",
            "tokenURI(uint256)": "infinite",
            "totalSupply()": "2404",
            "transferFrom(address,address,uint256)": "infinite",
            "transferOwnership(address)": "28463",
            "withdrawAll()": "infinite"
        },
        "internal": {
            "_baseURI()": "infinite"
        }
    }
}